{
  "_format": "hh3-artifact-1",
  "contractName": "MilestoneBasedFunding",
  "sourceName": "contracts/milestone.sol",
  "abi": [
    {
      "inputs": [
        {
          "internalType": "address",
          "name": "_seas4Contract",
          "type": "address"
        }
      ],
      "stateMutability": "nonpayable",
      "type": "constructor"
    },
    {
      "inputs": [
        {
          "internalType": "address",
          "name": "owner",
          "type": "address"
        }
      ],
      "name": "OwnableInvalidOwner",
      "type": "error"
    },
    {
      "inputs": [
        {
          "internalType": "address",
          "name": "account",
          "type": "address"
        }
      ],
      "name": "OwnableUnauthorizedAccount",
      "type": "error"
    },
    {
      "inputs": [],
      "name": "ReentrancyGuardReentrantCall",
      "type": "error"
    },
    {
      "inputs": [
        {
          "internalType": "address",
          "name": "token",
          "type": "address"
        }
      ],
      "name": "SafeERC20FailedOperation",
      "type": "error"
    },
    {
      "anonymous": false,
      "inputs": [
        {
          "indexed": true,
          "internalType": "address",
          "name": "token",
          "type": "address"
        },
        {
          "indexed": false,
          "internalType": "uint256",
          "name": "amount",
          "type": "uint256"
        },
        {
          "indexed": false,
          "internalType": "string",
          "name": "feeType",
          "type": "string"
        }
      ],
      "name": "FeeCollected",
      "type": "event"
    },
    {
      "anonymous": false,
      "inputs": [
        {
          "indexed": true,
          "internalType": "uint256",
          "name": "grantId",
          "type": "uint256"
        },
        {
          "indexed": true,
          "internalType": "address",
          "name": "token",
          "type": "address"
        },
        {
          "indexed": false,
          "internalType": "uint256",
          "name": "amount",
          "type": "uint256"
        },
        {
          "indexed": false,
          "internalType": "address",
          "name": "addedBy",
          "type": "address"
        }
      ],
      "name": "FundsAddedToGrant",
      "type": "event"
    },
    {
      "anonymous": false,
      "inputs": [
        {
          "indexed": true,
          "internalType": "uint256",
          "name": "grantId",
          "type": "uint256"
        },
        {
          "indexed": true,
          "internalType": "address",
          "name": "token",
          "type": "address"
        },
        {
          "indexed": false,
          "internalType": "uint256",
          "name": "amount",
          "type": "uint256"
        },
        {
          "indexed": false,
          "internalType": "address",
          "name": "recipient",
          "type": "address"
        },
        {
          "indexed": false,
          "internalType": "address",
          "name": "withdrawnBy",
          "type": "address"
        }
      ],
      "name": "FundsWithdrawnFromGrant",
      "type": "event"
    },
    {
      "anonymous": false,
      "inputs": [
        {
          "indexed": true,
          "internalType": "uint256",
          "name": "grantId",
          "type": "uint256"
        },
        {
          "indexed": true,
          "internalType": "address",
          "name": "admin",
          "type": "address"
        },
        {
          "indexed": true,
          "internalType": "address",
          "name": "addedBy",
          "type": "address"
        }
      ],
      "name": "GrantAdminAdded",
      "type": "event"
    },
    {
      "anonymous": false,
      "inputs": [
        {
          "indexed": true,
          "internalType": "uint256",
          "name": "grantId",
          "type": "uint256"
        },
        {
          "indexed": true,
          "internalType": "address",
          "name": "admin",
          "type": "address"
        },
        {
          "indexed": true,
          "internalType": "address",
          "name": "removedBy",
          "type": "address"
        }
      ],
      "name": "GrantAdminRemoved",
      "type": "event"
    },
    {
      "anonymous": false,
      "inputs": [
        {
          "indexed": true,
          "internalType": "uint256",
          "name": "grantId",
          "type": "uint256"
        },
        {
          "indexed": true,
          "internalType": "address",
          "name": "cancelledBy",
          "type": "address"
        },
        {
          "indexed": false,
          "internalType": "address[]",
          "name": "tokens",
          "type": "address[]"
        },
        {
          "indexed": false,
          "internalType": "uint256[]",
          "name": "refundedAmounts",
          "type": "uint256[]"
        }
      ],
      "name": "GrantCancelled",
      "type": "event"
    },
    {
      "anonymous": false,
      "inputs": [
        {
          "indexed": true,
          "internalType": "uint256",
          "name": "grantId",
          "type": "uint256"
        },
        {
          "indexed": true,
          "internalType": "address",
          "name": "grantee",
          "type": "address"
        },
        {
          "indexed": false,
          "internalType": "uint256",
          "name": "completedAt",
          "type": "uint256"
        }
      ],
      "name": "GrantCompleted",
      "type": "event"
    },
    {
      "anonymous": false,
      "inputs": [
        {
          "indexed": true,
          "internalType": "uint256",
          "name": "grantId",
          "type": "uint256"
        },
        {
          "indexed": true,
          "internalType": "uint256",
          "name": "linkedEntityId",
          "type": "uint256"
        },
        {
          "indexed": false,
          "internalType": "enum MilestoneBasedFunding.EntityType",
          "name": "entityType",
          "type": "uint8"
        },
        {
          "indexed": true,
          "internalType": "address",
          "name": "grantee",
          "type": "address"
        },
        {
          "indexed": false,
          "internalType": "address[]",
          "name": "tokens",
          "type": "address[]"
        },
        {
          "indexed": false,
          "internalType": "uint256[]",
          "name": "amounts",
          "type": "uint256[]"
        },
        {
          "indexed": false,
          "internalType": "uint256",
          "name": "siteFeePercentage",
          "type": "uint256"
        },
        {
          "indexed": false,
          "internalType": "uint256",
          "name": "reviewTimeLock",
          "type": "uint256"
        }
      ],
      "name": "GrantCreated",
      "type": "event"
    },
    {
      "anonymous": false,
      "inputs": [
        {
          "indexed": true,
          "internalType": "uint256",
          "name": "grantId",
          "type": "uint256"
        },
        {
          "indexed": true,
          "internalType": "uint256",
          "name": "milestoneId",
          "type": "uint256"
        },
        {
          "indexed": true,
          "internalType": "address",
          "name": "approver",
          "type": "address"
        },
        {
          "indexed": false,
          "internalType": "string",
          "name": "message",
          "type": "string"
        },
        {
          "indexed": false,
          "internalType": "bool",
          "name": "autoApproved",
          "type": "bool"
        }
      ],
      "name": "MilestoneApproved",
      "type": "event"
    },
    {
      "anonymous": false,
      "inputs": [
        {
          "indexed": true,
          "internalType": "uint256",
          "name": "grantId",
          "type": "uint256"
        },
        {
          "indexed": true,
          "internalType": "uint256",
          "name": "milestoneId",
          "type": "uint256"
        },
        {
          "indexed": true,
          "internalType": "address",
          "name": "grantee",
          "type": "address"
        },
        {
          "indexed": false,
          "internalType": "address",
          "name": "token",
          "type": "address"
        },
        {
          "indexed": false,
          "internalType": "uint256",
          "name": "amount",
          "type": "uint256"
        },
        {
          "indexed": false,
          "internalType": "uint256",
          "name": "siteFee",
          "type": "uint256"
        }
      ],
      "name": "MilestoneFundsReleased",
      "type": "event"
    },
    {
      "anonymous": false,
      "inputs": [
        {
          "indexed": true,
          "internalType": "uint256",
          "name": "grantId",
          "type": "uint256"
        },
        {
          "indexed": true,
          "internalType": "uint256",
          "name": "milestoneId",
          "type": "uint256"
        },
        {
          "indexed": false,
          "internalType": "string",
          "name": "reason",
          "type": "string"
        }
      ],
      "name": "MilestoneLocked",
      "type": "event"
    },
    {
      "anonymous": false,
      "inputs": [
        {
          "indexed": true,
          "internalType": "uint256",
          "name": "grantId",
          "type": "uint256"
        },
        {
          "indexed": true,
          "internalType": "uint256",
          "name": "milestoneId",
          "type": "uint256"
        },
        {
          "indexed": false,
          "internalType": "uint256",
          "name": "penaltyPercentage",
          "type": "uint256"
        },
        {
          "indexed": false,
          "internalType": "string",
          "name": "reason",
          "type": "string"
        }
      ],
      "name": "MilestonePenaltyApplied",
      "type": "event"
    },
    {
      "anonymous": false,
      "inputs": [
        {
          "indexed": true,
          "internalType": "uint256",
          "name": "grantId",
          "type": "uint256"
        },
        {
          "indexed": true,
          "internalType": "uint256",
          "name": "milestoneId",
          "type": "uint256"
        },
        {
          "indexed": true,
          "internalType": "address",
          "name": "rejector",
          "type": "address"
        },
        {
          "indexed": false,
          "internalType": "string",
          "name": "message",
          "type": "string"
        }
      ],
      "name": "MilestoneRejected",
      "type": "event"
    },
    {
      "anonymous": false,
      "inputs": [
        {
          "indexed": true,
          "internalType": "uint256",
          "name": "grantId",
          "type": "uint256"
        },
        {
          "indexed": true,
          "internalType": "uint256",
          "name": "milestoneId",
          "type": "uint256"
        },
        {
          "indexed": false,
          "internalType": "string",
          "name": "newEvidenceHash",
          "type": "string"
        }
      ],
      "name": "MilestoneResubmitted",
      "type": "event"
    },
    {
      "anonymous": false,
      "inputs": [
        {
          "indexed": true,
          "internalType": "uint256",
          "name": "milestoneId",
          "type": "uint256"
        },
        {
          "indexed": true,
          "internalType": "address",
          "name": "steward",
          "type": "address"
        },
        {
          "indexed": true,
          "internalType": "address",
          "name": "addedBy",
          "type": "address"
        }
      ],
      "name": "MilestoneStewardAdded",
      "type": "event"
    },
    {
      "anonymous": false,
      "inputs": [
        {
          "indexed": true,
          "internalType": "uint256",
          "name": "milestoneId",
          "type": "uint256"
        },
        {
          "indexed": true,
          "internalType": "address",
          "name": "steward",
          "type": "address"
        },
        {
          "indexed": true,
          "internalType": "address",
          "name": "removedBy",
          "type": "address"
        }
      ],
      "name": "MilestoneStewardRemoved",
      "type": "event"
    },
    {
      "anonymous": false,
      "inputs": [
        {
          "indexed": true,
          "internalType": "uint256",
          "name": "grantId",
          "type": "uint256"
        },
        {
          "indexed": true,
          "internalType": "uint256",
          "name": "milestoneId",
          "type": "uint256"
        },
        {
          "indexed": true,
          "internalType": "address",
          "name": "grantee",
          "type": "address"
        },
        {
          "indexed": false,
          "internalType": "string",
          "name": "title",
          "type": "string"
        },
        {
          "indexed": false,
          "internalType": "string",
          "name": "evidenceHash",
          "type": "string"
        },
        {
          "indexed": false,
          "internalType": "uint256",
          "name": "percentage",
          "type": "uint256"
        }
      ],
      "name": "MilestoneSubmitted",
      "type": "event"
    },
    {
      "anonymous": false,
      "inputs": [
        {
          "indexed": true,
          "internalType": "uint256",
          "name": "milestoneId",
          "type": "uint256"
        },
        {
          "indexed": true,
          "internalType": "address",
          "name": "claimedBy",
          "type": "address"
        }
      ],
      "name": "OpenMilestoneClaimed",
      "type": "event"
    },
    {
      "anonymous": false,
      "inputs": [
        {
          "indexed": true,
          "internalType": "address",
          "name": "previousOwner",
          "type": "address"
        },
        {
          "indexed": true,
          "internalType": "address",
          "name": "newOwner",
          "type": "address"
        }
      ],
      "name": "OwnershipTransferred",
      "type": "event"
    },
    {
      "anonymous": false,
      "inputs": [
        {
          "indexed": true,
          "internalType": "uint256",
          "name": "milestoneId",
          "type": "uint256"
        },
        {
          "indexed": true,
          "internalType": "address",
          "name": "approver",
          "type": "address"
        },
        {
          "indexed": false,
          "internalType": "string",
          "name": "message",
          "type": "string"
        }
      ],
      "name": "ProjectMilestoneApproved",
      "type": "event"
    },
    {
      "anonymous": false,
      "inputs": [
        {
          "indexed": true,
          "internalType": "uint256",
          "name": "milestoneId",
          "type": "uint256"
        },
        {
          "indexed": true,
          "internalType": "address",
          "name": "cancelledBy",
          "type": "address"
        }
      ],
      "name": "ProjectMilestoneCancelled",
      "type": "event"
    },
    {
      "anonymous": false,
      "inputs": [
        {
          "indexed": true,
          "internalType": "uint256",
          "name": "projectId",
          "type": "uint256"
        },
        {
          "indexed": true,
          "internalType": "uint256",
          "name": "milestoneId",
          "type": "uint256"
        },
        {
          "indexed": false,
          "internalType": "enum MilestoneBasedFunding.ProjectMilestoneType",
          "name": "milestoneType",
          "type": "uint8"
        },
        {
          "indexed": true,
          "internalType": "address",
          "name": "assignedTo",
          "type": "address"
        },
        {
          "indexed": false,
          "internalType": "string",
          "name": "title",
          "type": "string"
        }
      ],
      "name": "ProjectMilestoneCreated",
      "type": "event"
    },
    {
      "anonymous": false,
      "inputs": [
        {
          "indexed": true,
          "internalType": "uint256",
          "name": "milestoneId",
          "type": "uint256"
        },
        {
          "indexed": true,
          "internalType": "address",
          "name": "submitter",
          "type": "address"
        },
        {
          "indexed": false,
          "internalType": "string",
          "name": "evidenceHash",
          "type": "string"
        }
      ],
      "name": "ProjectMilestoneEvidenceSubmitted",
      "type": "event"
    },
    {
      "anonymous": false,
      "inputs": [
        {
          "indexed": true,
          "internalType": "uint256",
          "name": "milestoneId",
          "type": "uint256"
        },
        {
          "indexed": true,
          "internalType": "address",
          "name": "token",
          "type": "address"
        },
        {
          "indexed": false,
          "internalType": "uint256",
          "name": "amount",
          "type": "uint256"
        },
        {
          "indexed": true,
          "internalType": "address",
          "name": "funder",
          "type": "address"
        }
      ],
      "name": "ProjectMilestoneFunded",
      "type": "event"
    },
    {
      "anonymous": false,
      "inputs": [
        {
          "indexed": true,
          "internalType": "uint256",
          "name": "milestoneId",
          "type": "uint256"
        },
        {
          "indexed": true,
          "internalType": "address",
          "name": "rejector",
          "type": "address"
        },
        {
          "indexed": false,
          "internalType": "string",
          "name": "message",
          "type": "string"
        }
      ],
      "name": "ProjectMilestoneRejected",
      "type": "event"
    },
    {
      "anonymous": false,
      "inputs": [
        {
          "indexed": true,
          "internalType": "uint256",
          "name": "milestoneId",
          "type": "uint256"
        },
        {
          "indexed": true,
          "internalType": "address",
          "name": "recipient",
          "type": "address"
        },
        {
          "indexed": true,
          "internalType": "address",
          "name": "token",
          "type": "address"
        },
        {
          "indexed": false,
          "internalType": "uint256",
          "name": "amount",
          "type": "uint256"
        }
      ],
      "name": "ProjectMilestoneRewardsClaimed",
      "type": "event"
    },
    {
      "inputs": [],
      "name": "MAX_SITE_FEE",
      "outputs": [
        {
          "internalType": "uint256",
          "name": "",
          "type": "uint256"
        }
      ],
      "stateMutability": "view",
      "type": "function"
    },
    {
      "inputs": [],
      "name": "MIN_SITE_FEE",
      "outputs": [
        {
          "internalType": "uint256",
          "name": "",
          "type": "uint256"
        }
      ],
      "stateMutability": "view",
      "type": "function"
    },
    {
      "inputs": [
        {
          "internalType": "uint256",
          "name": "_grantId",
          "type": "uint256"
        },
        {
          "internalType": "address[]",
          "name": "_tokens",
          "type": "address[]"
        },
        {
          "internalType": "uint256[]",
          "name": "_amounts",
          "type": "uint256[]"
        }
      ],
      "name": "addFundsToGrant",
      "outputs": [],
      "stateMutability": "payable",
      "type": "function"
    },
    {
      "inputs": [
        {
          "internalType": "uint256",
          "name": "_grantId",
          "type": "uint256"
        },
        {
          "internalType": "address",
          "name": "_admin",
          "type": "address"
        }
      ],
      "name": "addGrantAdmin",
      "outputs": [],
      "stateMutability": "nonpayable",
      "type": "function"
    },
    {
      "inputs": [
        {
          "internalType": "uint256",
          "name": "_milestoneId",
          "type": "uint256"
        },
        {
          "internalType": "address",
          "name": "_steward",
          "type": "address"
        }
      ],
      "name": "addMilestoneSteward",
      "outputs": [],
      "stateMutability": "nonpayable",
      "type": "function"
    },
    {
      "inputs": [
        {
          "internalType": "uint256",
          "name": "_grantId",
          "type": "uint256"
        },
        {
          "internalType": "uint256",
          "name": "_milestoneId",
          "type": "uint256"
        },
        {
          "internalType": "string",
          "name": "_message",
          "type": "string"
        }
      ],
      "name": "approveMilestone",
      "outputs": [],
      "stateMutability": "nonpayable",
      "type": "function"
    },
    {
      "inputs": [
        {
          "internalType": "uint256",
          "name": "_milestoneId",
          "type": "uint256"
        },
        {
          "internalType": "string",
          "name": "_message",
          "type": "string"
        }
      ],
      "name": "approveProjectMilestone",
      "outputs": [],
      "stateMutability": "nonpayable",
      "type": "function"
    },
    {
      "inputs": [
        {
          "internalType": "uint256",
          "name": "_milestoneId",
          "type": "uint256"
        },
        {
          "internalType": "address",
          "name": "_user",
          "type": "address"
        }
      ],
      "name": "canApproveMilestone",
      "outputs": [
        {
          "internalType": "bool",
          "name": "",
          "type": "bool"
        }
      ],
      "stateMutability": "view",
      "type": "function"
    },
    {
      "inputs": [
        {
          "internalType": "uint256",
          "name": "_milestoneId",
          "type": "uint256"
        }
      ],
      "name": "canAutoApproveMilestone",
      "outputs": [
        {
          "internalType": "bool",
          "name": "",
          "type": "bool"
        }
      ],
      "stateMutability": "view",
      "type": "function"
    },
    {
      "inputs": [
        {
          "internalType": "uint256",
          "name": "_milestoneId",
          "type": "uint256"
        }
      ],
      "name": "canClaimMilestone",
      "outputs": [
        {
          "internalType": "bool",
          "name": "",
          "type": "bool"
        }
      ],
      "stateMutability": "view",
      "type": "function"
    },
    {
      "inputs": [
        {
          "internalType": "uint256",
          "name": "_milestoneId",
          "type": "uint256"
        },
        {
          "internalType": "address",
          "name": "_user",
          "type": "address"
        }
      ],
      "name": "canSubmitMilestone",
      "outputs": [
        {
          "internalType": "bool",
          "name": "",
          "type": "bool"
        }
      ],
      "stateMutability": "view",
      "type": "function"
    },
    {
      "inputs": [
        {
          "internalType": "uint256",
          "name": "_grantId",
          "type": "uint256"
        },
        {
          "internalType": "address",
          "name": "_refundTo",
          "type": "address"
        }
      ],
      "name": "cancelGrant",
      "outputs": [],
      "stateMutability": "nonpayable",
      "type": "function"
    },
    {
      "inputs": [
        {
          "internalType": "uint256",
          "name": "_milestoneId",
          "type": "uint256"
        }
      ],
      "name": "cancelProjectMilestone",
      "outputs": [],
      "stateMutability": "nonpayable",
      "type": "function"
    },
    {
      "inputs": [],
      "name": "celoToken",
      "outputs": [
        {
          "internalType": "contract IERC20",
          "name": "",
          "type": "address"
        }
      ],
      "stateMutability": "view",
      "type": "function"
    },
    {
      "inputs": [
        {
          "internalType": "uint256",
          "name": "_grantId",
          "type": "uint256"
        },
        {
          "internalType": "uint256",
          "name": "_milestoneId",
          "type": "uint256"
        }
      ],
      "name": "checkAndAutoApproveMilestone",
      "outputs": [],
      "stateMutability": "nonpayable",
      "type": "function"
    },
    {
      "inputs": [
        {
          "internalType": "uint256",
          "name": "_milestoneId",
          "type": "uint256"
        }
      ],
      "name": "claimCompletionRewards",
      "outputs": [],
      "stateMutability": "nonpayable",
      "type": "function"
    },
    {
      "inputs": [
        {
          "internalType": "uint256",
          "name": "_milestoneId",
          "type": "uint256"
        }
      ],
      "name": "claimOpenMilestone",
      "outputs": [],
      "stateMutability": "nonpayable",
      "type": "function"
    },
    {
      "inputs": [
        {
          "internalType": "address",
          "name": "",
          "type": "address"
        }
      ],
      "name": "collectedFees",
      "outputs": [
        {
          "internalType": "uint256",
          "name": "",
          "type": "uint256"
        }
      ],
      "stateMutability": "view",
      "type": "function"
    },
    {
      "inputs": [
        {
          "internalType": "uint256",
          "name": "_linkedEntityId",
          "type": "uint256"
        },
        {
          "internalType": "enum MilestoneBasedFunding.EntityType",
          "name": "_entityType",
          "type": "uint8"
        },
        {
          "internalType": "address",
          "name": "_grantee",
          "type": "address"
        },
        {
          "internalType": "address[]",
          "name": "_tokens",
          "type": "address[]"
        },
        {
          "internalType": "uint256[]",
          "name": "_amounts",
          "type": "uint256[]"
        },
        {
          "internalType": "uint256",
          "name": "_siteFeePercentage",
          "type": "uint256"
        },
        {
          "internalType": "uint256",
          "name": "_reviewTimeLock",
          "type": "uint256"
        },
        {
          "internalType": "uint256",
          "name": "_milestoneDeadline",
          "type": "uint256"
        }
      ],
      "name": "createGrant",
      "outputs": [],
      "stateMutability": "payable",
      "type": "function"
    },
    {
      "inputs": [
        {
          "internalType": "uint256",
          "name": "_projectId",
          "type": "uint256"
        },
        {
          "internalType": "enum MilestoneBasedFunding.ProjectMilestoneType",
          "name": "_milestoneType",
          "type": "uint8"
        },
        {
          "internalType": "address",
          "name": "_assignedTo",
          "type": "address"
        },
        {
          "internalType": "string",
          "name": "_title",
          "type": "string"
        },
        {
          "internalType": "string",
          "name": "_description",
          "type": "string"
        },
        {
          "internalType": "string",
          "name": "_requirements",
          "type": "string"
        },
        {
          "internalType": "uint256",
          "name": "_deadline",
          "type": "uint256"
        },
        {
          "internalType": "uint256",
          "name": "_requiredApprovals",
          "type": "uint256"
        },
        {
          "internalType": "bool",
          "name": "_allowSiteAdminApproval",
          "type": "bool"
        },
        {
          "internalType": "address[]",
          "name": "_stewards",
          "type": "address[]"
        }
      ],
      "name": "createProjectMilestone",
      "outputs": [],
      "stateMutability": "nonpayable",
      "type": "function"
    },
    {
      "inputs": [
        {
          "internalType": "uint256",
          "name": "_milestoneId",
          "type": "uint256"
        },
        {
          "internalType": "address[]",
          "name": "_tokens",
          "type": "address[]"
        },
        {
          "internalType": "uint256[]",
          "name": "_amounts",
          "type": "uint256[]"
        }
      ],
      "name": "fundProjectMilestone",
      "outputs": [],
      "stateMutability": "payable",
      "type": "function"
    },
    {
      "inputs": [
        {
          "internalType": "uint256",
          "name": "_grantId",
          "type": "uint256"
        }
      ],
      "name": "getGrant",
      "outputs": [
        {
          "internalType": "uint256",
          "name": "id",
          "type": "uint256"
        },
        {
          "internalType": "address",
          "name": "grantee",
          "type": "address"
        },
        {
          "internalType": "uint256",
          "name": "linkedEntityId",
          "type": "uint256"
        },
        {
          "internalType": "enum MilestoneBasedFunding.EntityType",
          "name": "entityType",
          "type": "uint8"
        },
        {
          "internalType": "uint256",
          "name": "siteFeePercentage",
          "type": "uint256"
        },
        {
          "internalType": "uint256",
          "name": "reviewTimeLock",
          "type": "uint256"
        },
        {
          "internalType": "uint256",
          "name": "milestoneDeadline",
          "type": "uint256"
        },
        {
          "internalType": "enum MilestoneBasedFunding.GrantStatus",
          "name": "status",
          "type": "uint8"
        },
        {
          "internalType": "uint256",
          "name": "createdAt",
          "type": "uint256"
        },
        {
          "internalType": "uint256",
          "name": "completedAt",
          "type": "uint256"
        },
        {
          "internalType": "address[]",
          "name": "supportedTokens",
          "type": "address[]"
        }
      ],
      "stateMutability": "view",
      "type": "function"
    },
    {
      "inputs": [
        {
          "internalType": "uint256",
          "name": "_grantId",
          "type": "uint256"
        }
      ],
      "name": "getGrantAdmins",
      "outputs": [
        {
          "internalType": "address[]",
          "name": "",
          "type": "address[]"
        }
      ],
      "stateMutability": "view",
      "type": "function"
    },
    {
      "inputs": [],
      "name": "getGrantCount",
      "outputs": [
        {
          "internalType": "uint256",
          "name": "",
          "type": "uint256"
        }
      ],
      "stateMutability": "view",
      "type": "function"
    },
    {
      "inputs": [
        {
          "internalType": "uint256",
          "name": "_grantId",
          "type": "uint256"
        }
      ],
      "name": "getGrantMilestones",
      "outputs": [
        {
          "internalType": "uint256[]",
          "name": "",
          "type": "uint256[]"
        }
      ],
      "stateMutability": "view",
      "type": "function"
    },
    {
      "inputs": [
        {
          "internalType": "uint256",
          "name": "_grantId",
          "type": "uint256"
        },
        {
          "internalType": "address",
          "name": "_token",
          "type": "address"
        }
      ],
      "name": "getGrantTokenAmounts",
      "outputs": [
        {
          "internalType": "uint256",
          "name": "totalAmount",
          "type": "uint256"
        },
        {
          "internalType": "uint256",
          "name": "releasedAmount",
          "type": "uint256"
        },
        {
          "internalType": "uint256",
          "name": "escrowedAmount",
          "type": "uint256"
        }
      ],
      "stateMutability": "view",
      "type": "function"
    },
    {
      "inputs": [
        {
          "internalType": "uint256",
          "name": "_milestoneId",
          "type": "uint256"
        }
      ],
      "name": "getMilestone",
      "outputs": [
        {
          "internalType": "uint256",
          "name": "id",
          "type": "uint256"
        },
        {
          "internalType": "uint256",
          "name": "grantId",
          "type": "uint256"
        },
        {
          "internalType": "string",
          "name": "title",
          "type": "string"
        },
        {
          "internalType": "string",
          "name": "description",
          "type": "string"
        },
        {
          "internalType": "string",
          "name": "evidenceHash",
          "type": "string"
        },
        {
          "internalType": "uint256",
          "name": "percentage",
          "type": "uint256"
        },
        {
          "internalType": "enum MilestoneBasedFunding.MilestoneStatus",
          "name": "status",
          "type": "uint8"
        },
        {
          "internalType": "uint256",
          "name": "submittedAt",
          "type": "uint256"
        },
        {
          "internalType": "uint256",
          "name": "reviewDeadline",
          "type": "uint256"
        },
        {
          "internalType": "uint256",
          "name": "approvedAt",
          "type": "uint256"
        },
        {
          "internalType": "address",
          "name": "approvedBy",
          "type": "address"
        },
        {
          "internalType": "string",
          "name": "approvalMessage",
          "type": "string"
        },
        {
          "internalType": "bool",
          "name": "autoApproved",
          "type": "bool"
        },
        {
          "internalType": "uint256",
          "name": "paidAt",
          "type": "uint256"
        },
        {
          "internalType": "uint256",
          "name": "deadline",
          "type": "uint256"
        },
        {
          "internalType": "uint256",
          "name": "penaltyPercentage",
          "type": "uint256"
        },
        {
          "internalType": "bool",
          "name": "isLocked",
          "type": "bool"
        }
      ],
      "stateMutability": "view",
      "type": "function"
    },
    {
      "inputs": [
        {
          "internalType": "uint256",
          "name": "_milestoneId",
          "type": "uint256"
        }
      ],
      "name": "getMilestoneApprovalCount",
      "outputs": [
        {
          "internalType": "uint256",
          "name": "",
          "type": "uint256"
        }
      ],
      "stateMutability": "view",
      "type": "function"
    },
    {
      "inputs": [
        {
          "internalType": "uint256",
          "name": "_milestoneId",
          "type": "uint256"
        }
      ],
      "name": "getMilestoneApprovers",
      "outputs": [
        {
          "internalType": "address[]",
          "name": "",
          "type": "address[]"
        }
      ],
      "stateMutability": "view",
      "type": "function"
    },
    {
      "inputs": [],
      "name": "getMilestoneCount",
      "outputs": [
        {
          "internalType": "uint256",
          "name": "",
          "type": "uint256"
        }
      ],
      "stateMutability": "view",
      "type": "function"
    },
    {
      "inputs": [
        {
          "internalType": "uint256",
          "name": "_milestoneId",
          "type": "uint256"
        },
        {
          "internalType": "address",
          "name": "_token",
          "type": "address"
        }
      ],
      "name": "getMilestonePayout",
      "outputs": [
        {
          "internalType": "uint256",
          "name": "",
          "type": "uint256"
        }
      ],
      "stateMutability": "view",
      "type": "function"
    },
    {
      "inputs": [
        {
          "internalType": "uint256",
          "name": "_milestoneId",
          "type": "uint256"
        }
      ],
      "name": "getMilestoneRejection",
      "outputs": [
        {
          "internalType": "string",
          "name": "rejectionMessage",
          "type": "string"
        },
        {
          "internalType": "address",
          "name": "rejectedBy",
          "type": "address"
        },
        {
          "internalType": "uint256",
          "name": "rejectedAt",
          "type": "uint256"
        }
      ],
      "stateMutability": "view",
      "type": "function"
    },
    {
      "inputs": [
        {
          "internalType": "uint256",
          "name": "_milestoneId",
          "type": "uint256"
        }
      ],
      "name": "getMilestoneStewards",
      "outputs": [
        {
          "internalType": "address[]",
          "name": "",
          "type": "address[]"
        }
      ],
      "stateMutability": "view",
      "type": "function"
    },
    {
      "inputs": [
        {
          "internalType": "uint256",
          "name": "_milestoneId",
          "type": "uint256"
        }
      ],
      "name": "getProjectMilestone",
      "outputs": [
        {
          "internalType": "uint256",
          "name": "id",
          "type": "uint256"
        },
        {
          "internalType": "uint256",
          "name": "projectId",
          "type": "uint256"
        },
        {
          "internalType": "enum MilestoneBasedFunding.ProjectMilestoneType",
          "name": "milestoneType",
          "type": "uint8"
        },
        {
          "internalType": "enum MilestoneBasedFunding.ProjectMilestoneStatus",
          "name": "status",
          "type": "uint8"
        },
        {
          "internalType": "address",
          "name": "assignedTo",
          "type": "address"
        },
        {
          "internalType": "address",
          "name": "claimedBy",
          "type": "address"
        },
        {
          "internalType": "string",
          "name": "title",
          "type": "string"
        },
        {
          "internalType": "string",
          "name": "description",
          "type": "string"
        },
        {
          "internalType": "string",
          "name": "requirements",
          "type": "string"
        },
        {
          "internalType": "string",
          "name": "evidenceHash",
          "type": "string"
        },
        {
          "internalType": "uint256",
          "name": "requiredApprovals",
          "type": "uint256"
        },
        {
          "internalType": "bool",
          "name": "allowSiteAdminApproval",
          "type": "bool"
        },
        {
          "internalType": "uint256",
          "name": "createdAt",
          "type": "uint256"
        },
        {
          "internalType": "uint256",
          "name": "deadline",
          "type": "uint256"
        },
        {
          "internalType": "uint256",
          "name": "claimedAt",
          "type": "uint256"
        },
        {
          "internalType": "uint256",
          "name": "submittedAt",
          "type": "uint256"
        },
        {
          "internalType": "uint256",
          "name": "approvedAt",
          "type": "uint256"
        },
        {
          "internalType": "uint256",
          "name": "paidAt",
          "type": "uint256"
        },
        {
          "internalType": "address[]",
          "name": "supportedTokens",
          "type": "address[]"
        }
      ],
      "stateMutability": "view",
      "type": "function"
    },
    {
      "inputs": [
        {
          "internalType": "uint256",
          "name": "_milestoneId",
          "type": "uint256"
        }
      ],
      "name": "getProjectMilestoneApproval",
      "outputs": [
        {
          "internalType": "string",
          "name": "approvalMessage",
          "type": "string"
        },
        {
          "internalType": "address",
          "name": "approvedBy",
          "type": "address"
        },
        {
          "internalType": "uint256",
          "name": "approvedAt",
          "type": "uint256"
        }
      ],
      "stateMutability": "view",
      "type": "function"
    },
    {
      "inputs": [],
      "name": "getProjectMilestoneCount",
      "outputs": [
        {
          "internalType": "uint256",
          "name": "",
          "type": "uint256"
        }
      ],
      "stateMutability": "view",
      "type": "function"
    },
    {
      "inputs": [
        {
          "internalType": "uint256",
          "name": "_milestoneId",
          "type": "uint256"
        },
        {
          "internalType": "address",
          "name": "_token",
          "type": "address"
        }
      ],
      "name": "getProjectMilestoneEscrowed",
      "outputs": [
        {
          "internalType": "uint256",
          "name": "",
          "type": "uint256"
        }
      ],
      "stateMutability": "view",
      "type": "function"
    },
    {
      "inputs": [
        {
          "internalType": "uint256",
          "name": "_milestoneId",
          "type": "uint256"
        }
      ],
      "name": "getProjectMilestoneRejection",
      "outputs": [
        {
          "internalType": "string",
          "name": "rejectionMessage",
          "type": "string"
        },
        {
          "internalType": "address",
          "name": "rejectedBy",
          "type": "address"
        },
        {
          "internalType": "uint256",
          "name": "rejectedAt",
          "type": "uint256"
        }
      ],
      "stateMutability": "view",
      "type": "function"
    },
    {
      "inputs": [
        {
          "internalType": "uint256",
          "name": "_milestoneId",
          "type": "uint256"
        },
        {
          "internalType": "address",
          "name": "_token",
          "type": "address"
        }
      ],
      "name": "getProjectMilestoneReward",
      "outputs": [
        {
          "internalType": "uint256",
          "name": "",
          "type": "uint256"
        }
      ],
      "stateMutability": "view",
      "type": "function"
    },
    {
      "inputs": [
        {
          "internalType": "uint256",
          "name": "_milestoneId",
          "type": "uint256"
        }
      ],
      "name": "getProjectMilestoneTokenDetails",
      "outputs": [
        {
          "internalType": "address[]",
          "name": "tokens",
          "type": "address[]"
        },
        {
          "internalType": "uint256[]",
          "name": "rewardAmounts",
          "type": "uint256[]"
        },
        {
          "internalType": "uint256[]",
          "name": "escrowedAmounts",
          "type": "uint256[]"
        }
      ],
      "stateMutability": "view",
      "type": "function"
    },
    {
      "inputs": [
        {
          "internalType": "uint256",
          "name": "_projectId",
          "type": "uint256"
        }
      ],
      "name": "getProjectMilestones",
      "outputs": [
        {
          "internalType": "uint256[]",
          "name": "",
          "type": "uint256[]"
        }
      ],
      "stateMutability": "view",
      "type": "function"
    },
    {
      "inputs": [
        {
          "internalType": "address",
          "name": "_user",
          "type": "address"
        }
      ],
      "name": "getUserClaimedMilestones",
      "outputs": [
        {
          "internalType": "uint256[]",
          "name": "",
          "type": "uint256[]"
        }
      ],
      "stateMutability": "view",
      "type": "function"
    },
    {
      "inputs": [
        {
          "internalType": "uint256",
          "name": "",
          "type": "uint256"
        },
        {
          "internalType": "uint256",
          "name": "",
          "type": "uint256"
        }
      ],
      "name": "grantAdmins",
      "outputs": [
        {
          "internalType": "address",
          "name": "",
          "type": "address"
        }
      ],
      "stateMutability": "view",
      "type": "function"
    },
    {
      "inputs": [
        {
          "internalType": "uint256",
          "name": "",
          "type": "uint256"
        },
        {
          "internalType": "uint256",
          "name": "",
          "type": "uint256"
        }
      ],
      "name": "grantHasMilestone",
      "outputs": [
        {
          "internalType": "bool",
          "name": "",
          "type": "bool"
        }
      ],
      "stateMutability": "view",
      "type": "function"
    },
    {
      "inputs": [
        {
          "internalType": "uint256",
          "name": "",
          "type": "uint256"
        },
        {
          "internalType": "uint256",
          "name": "",
          "type": "uint256"
        }
      ],
      "name": "grantMilestones",
      "outputs": [
        {
          "internalType": "uint256",
          "name": "",
          "type": "uint256"
        }
      ],
      "stateMutability": "view",
      "type": "function"
    },
    {
      "inputs": [
        {
          "internalType": "uint256",
          "name": "",
          "type": "uint256"
        }
      ],
      "name": "grants",
      "outputs": [
        {
          "internalType": "uint256",
          "name": "id",
          "type": "uint256"
        },
        {
          "internalType": "address",
          "name": "grantee",
          "type": "address"
        },
        {
          "internalType": "uint256",
          "name": "linkedEntityId",
          "type": "uint256"
        },
        {
          "internalType": "enum MilestoneBasedFunding.EntityType",
          "name": "entityType",
          "type": "uint8"
        },
        {
          "internalType": "uint256",
          "name": "siteFeePercentage",
          "type": "uint256"
        },
        {
          "internalType": "uint256",
          "name": "reviewTimeLock",
          "type": "uint256"
        },
        {
          "internalType": "uint256",
          "name": "milestoneDeadline",
          "type": "uint256"
        },
        {
          "internalType": "enum MilestoneBasedFunding.GrantStatus",
          "name": "status",
          "type": "uint8"
        },
        {
          "internalType": "uint256",
          "name": "createdAt",
          "type": "uint256"
        },
        {
          "internalType": "uint256",
          "name": "completedAt",
          "type": "uint256"
        }
      ],
      "stateMutability": "view",
      "type": "function"
    },
    {
      "inputs": [
        {
          "internalType": "uint256",
          "name": "_milestoneId",
          "type": "uint256"
        },
        {
          "internalType": "address",
          "name": "_approver",
          "type": "address"
        }
      ],
      "name": "hasApprovedMilestone",
      "outputs": [
        {
          "internalType": "bool",
          "name": "",
          "type": "bool"
        }
      ],
      "stateMutability": "view",
      "type": "function"
    },
    {
      "inputs": [
        {
          "internalType": "address",
          "name": "",
          "type": "address"
        },
        {
          "internalType": "uint256",
          "name": "",
          "type": "uint256"
        }
      ],
      "name": "hasUserClaimedMilestone",
      "outputs": [
        {
          "internalType": "bool",
          "name": "",
          "type": "bool"
        }
      ],
      "stateMutability": "view",
      "type": "function"
    },
    {
      "inputs": [
        {
          "internalType": "uint256",
          "name": "",
          "type": "uint256"
        },
        {
          "internalType": "address",
          "name": "",
          "type": "address"
        }
      ],
      "name": "isGrantAdmin",
      "outputs": [
        {
          "internalType": "bool",
          "name": "",
          "type": "bool"
        }
      ],
      "stateMutability": "view",
      "type": "function"
    },
    {
      "inputs": [
        {
          "internalType": "uint256",
          "name": "",
          "type": "uint256"
        },
        {
          "internalType": "address",
          "name": "",
          "type": "address"
        }
      ],
      "name": "isMilestoneSteward",
      "outputs": [
        {
          "internalType": "bool",
          "name": "",
          "type": "bool"
        }
      ],
      "stateMutability": "view",
      "type": "function"
    },
    {
      "inputs": [
        {
          "internalType": "uint256",
          "name": "",
          "type": "uint256"
        },
        {
          "internalType": "uint256",
          "name": "",
          "type": "uint256"
        }
      ],
      "name": "milestoneStewards",
      "outputs": [
        {
          "internalType": "address",
          "name": "",
          "type": "address"
        }
      ],
      "stateMutability": "view",
      "type": "function"
    },
    {
      "inputs": [
        {
          "internalType": "uint256",
          "name": "",
          "type": "uint256"
        }
      ],
      "name": "milestones",
      "outputs": [
        {
          "internalType": "uint256",
          "name": "id",
          "type": "uint256"
        },
        {
          "internalType": "uint256",
          "name": "grantId",
          "type": "uint256"
        },
        {
          "internalType": "string",
          "name": "title",
          "type": "string"
        },
        {
          "internalType": "string",
          "name": "description",
          "type": "string"
        },
        {
          "internalType": "string",
          "name": "evidenceHash",
          "type": "string"
        },
        {
          "internalType": "uint256",
          "name": "percentage",
          "type": "uint256"
        },
        {
          "internalType": "enum MilestoneBasedFunding.MilestoneStatus",
          "name": "status",
          "type": "uint8"
        },
        {
          "internalType": "uint256",
          "name": "submittedAt",
          "type": "uint256"
        },
        {
          "internalType": "uint256",
          "name": "reviewDeadline",
          "type": "uint256"
        },
        {
          "internalType": "uint256",
          "name": "approvedAt",
          "type": "uint256"
        },
        {
          "internalType": "address",
          "name": "approvedBy",
          "type": "address"
        },
        {
          "internalType": "string",
          "name": "approvalMessage",
          "type": "string"
        },
        {
          "internalType": "string",
          "name": "rejectionMessage",
          "type": "string"
        },
        {
          "internalType": "address",
          "name": "rejectedBy",
          "type": "address"
        },
        {
          "internalType": "uint256",
          "name": "rejectedAt",
          "type": "uint256"
        },
        {
          "internalType": "bool",
          "name": "autoApproved",
          "type": "bool"
        },
        {
          "internalType": "uint256",
          "name": "paidAt",
          "type": "uint256"
        },
        {
          "internalType": "uint256",
          "name": "deadline",
          "type": "uint256"
        },
        {
          "internalType": "uint256",
          "name": "penaltyPercentage",
          "type": "uint256"
        },
        {
          "internalType": "bool",
          "name": "isLocked",
          "type": "bool"
        }
      ],
      "stateMutability": "view",
      "type": "function"
    },
    {
      "inputs": [],
      "name": "nextGrantId",
      "outputs": [
        {
          "internalType": "uint256",
          "name": "",
          "type": "uint256"
        }
      ],
      "stateMutability": "view",
      "type": "function"
    },
    {
      "inputs": [],
      "name": "nextMilestoneId",
      "outputs": [
        {
          "internalType": "uint256",
          "name": "",
          "type": "uint256"
        }
      ],
      "stateMutability": "view",
      "type": "function"
    },
    {
      "inputs": [],
      "name": "nextProjectMilestoneId",
      "outputs": [
        {
          "internalType": "uint256",
          "name": "",
          "type": "uint256"
        }
      ],
      "stateMutability": "view",
      "type": "function"
    },
    {
      "inputs": [],
      "name": "owner",
      "outputs": [
        {
          "internalType": "address",
          "name": "",
          "type": "address"
        }
      ],
      "stateMutability": "view",
      "type": "function"
    },
    {
      "inputs": [
        {
          "internalType": "uint256",
          "name": "",
          "type": "uint256"
        },
        {
          "internalType": "uint256",
          "name": "",
          "type": "uint256"
        }
      ],
      "name": "projectHasMilestone",
      "outputs": [
        {
          "internalType": "bool",
          "name": "",
          "type": "bool"
        }
      ],
      "stateMutability": "view",
      "type": "function"
    },
    {
      "inputs": [
        {
          "internalType": "uint256",
          "name": "",
          "type": "uint256"
        },
        {
          "internalType": "uint256",
          "name": "",
          "type": "uint256"
        }
      ],
      "name": "projectMilestoneIds",
      "outputs": [
        {
          "internalType": "uint256",
          "name": "",
          "type": "uint256"
        }
      ],
      "stateMutability": "view",
      "type": "function"
    },
    {
      "inputs": [],
      "name": "projectMilestonePlatformFee",
      "outputs": [
        {
          "internalType": "uint256",
          "name": "",
          "type": "uint256"
        }
      ],
      "stateMutability": "view",
      "type": "function"
    },
    {
      "inputs": [
        {
          "internalType": "uint256",
          "name": "",
          "type": "uint256"
        }
      ],
      "name": "projectMilestones",
      "outputs": [
        {
          "internalType": "uint256",
          "name": "id",
          "type": "uint256"
        },
        {
          "internalType": "uint256",
          "name": "projectId",
          "type": "uint256"
        },
        {
          "internalType": "enum MilestoneBasedFunding.ProjectMilestoneType",
          "name": "milestoneType",
          "type": "uint8"
        },
        {
          "internalType": "enum MilestoneBasedFunding.ProjectMilestoneStatus",
          "name": "status",
          "type": "uint8"
        },
        {
          "internalType": "address",
          "name": "assignedTo",
          "type": "address"
        },
        {
          "internalType": "address",
          "name": "claimedBy",
          "type": "address"
        },
        {
          "internalType": "string",
          "name": "title",
          "type": "string"
        },
        {
          "internalType": "string",
          "name": "description",
          "type": "string"
        },
        {
          "internalType": "string",
          "name": "requirements",
          "type": "string"
        },
        {
          "internalType": "string",
          "name": "evidenceHash",
          "type": "string"
        },
        {
          "internalType": "uint256",
          "name": "requiredApprovals",
          "type": "uint256"
        },
        {
          "internalType": "bool",
          "name": "allowSiteAdminApproval",
          "type": "bool"
        },
        {
          "internalType": "uint256",
          "name": "createdAt",
          "type": "uint256"
        },
        {
          "internalType": "uint256",
          "name": "deadline",
          "type": "uint256"
        },
        {
          "internalType": "uint256",
          "name": "claimedAt",
          "type": "uint256"
        },
        {
          "internalType": "uint256",
          "name": "submittedAt",
          "type": "uint256"
        },
        {
          "internalType": "uint256",
          "name": "approvedAt",
          "type": "uint256"
        },
        {
          "internalType": "uint256",
          "name": "paidAt",
          "type": "uint256"
        },
        {
          "internalType": "string",
          "name": "approvalMessage",
          "type": "string"
        },
        {
          "internalType": "string",
          "name": "rejectionMessage",
          "type": "string"
        },
        {
          "internalType": "address",
          "name": "approvedBy",
          "type": "address"
        },
        {
          "internalType": "address",
          "name": "rejectedBy",
          "type": "address"
        },
        {
          "internalType": "uint256",
          "name": "rejectedAt",
          "type": "uint256"
        }
      ],
      "stateMutability": "view",
      "type": "function"
    },
    {
      "inputs": [
        {
          "internalType": "uint256",
          "name": "_grantId",
          "type": "uint256"
        },
        {
          "internalType": "uint256",
          "name": "_milestoneId",
          "type": "uint256"
        },
        {
          "internalType": "string",
          "name": "_message",
          "type": "string"
        }
      ],
      "name": "rejectMilestone",
      "outputs": [],
      "stateMutability": "nonpayable",
      "type": "function"
    },
    {
      "inputs": [
        {
          "internalType": "uint256",
          "name": "_milestoneId",
          "type": "uint256"
        },
        {
          "internalType": "string",
          "name": "_message",
          "type": "string"
        }
      ],
      "name": "rejectProjectMilestone",
      "outputs": [],
      "stateMutability": "nonpayable",
      "type": "function"
    },
    {
      "inputs": [
        {
          "internalType": "uint256",
          "name": "_grantId",
          "type": "uint256"
        },
        {
          "internalType": "address",
          "name": "_admin",
          "type": "address"
        }
      ],
      "name": "removeGrantAdmin",
      "outputs": [],
      "stateMutability": "nonpayable",
      "type": "function"
    },
    {
      "inputs": [
        {
          "internalType": "uint256",
          "name": "_milestoneId",
          "type": "uint256"
        },
        {
          "internalType": "address",
          "name": "_steward",
          "type": "address"
        }
      ],
      "name": "removeMilestoneSteward",
      "outputs": [],
      "stateMutability": "nonpayable",
      "type": "function"
    },
    {
      "inputs": [],
      "name": "renounceOwnership",
      "outputs": [],
      "stateMutability": "nonpayable",
      "type": "function"
    },
    {
      "inputs": [
        {
          "internalType": "uint256",
          "name": "_grantId",
          "type": "uint256"
        },
        {
          "internalType": "uint256",
          "name": "_milestoneId",
          "type": "uint256"
        },
        {
          "internalType": "string",
          "name": "_newEvidenceHash",
          "type": "string"
        }
      ],
      "name": "resubmitMilestone",
      "outputs": [],
      "stateMutability": "nonpayable",
      "type": "function"
    },
    {
      "inputs": [],
      "name": "seas4Contract",
      "outputs": [
        {
          "internalType": "contract ISovereignSeasV4",
          "name": "",
          "type": "address"
        }
      ],
      "stateMutability": "view",
      "type": "function"
    },
    {
      "inputs": [
        {
          "internalType": "uint256",
          "name": "_fee",
          "type": "uint256"
        }
      ],
      "name": "setProjectMilestonePlatformFee",
      "outputs": [],
      "stateMutability": "nonpayable",
      "type": "function"
    },
    {
      "inputs": [
        {
          "internalType": "uint256",
          "name": "_grantId",
          "type": "uint256"
        },
        {
          "internalType": "string",
          "name": "_title",
          "type": "string"
        },
        {
          "internalType": "string",
          "name": "_description",
          "type": "string"
        },
        {
          "internalType": "string",
          "name": "_evidenceHash",
          "type": "string"
        },
        {
          "internalType": "uint256",
          "name": "_percentage",
          "type": "uint256"
        }
      ],
      "name": "submitMilestone",
      "outputs": [],
      "stateMutability": "nonpayable",
      "type": "function"
    },
    {
      "inputs": [
        {
          "internalType": "uint256",
          "name": "_milestoneId",
          "type": "uint256"
        },
        {
          "internalType": "string",
          "name": "_evidenceHash",
          "type": "string"
        }
      ],
      "name": "submitMilestoneEvidence",
      "outputs": [],
      "stateMutability": "nonpayable",
      "type": "function"
    },
    {
      "inputs": [
        {
          "internalType": "address",
          "name": "newOwner",
          "type": "address"
        }
      ],
      "name": "transferOwnership",
      "outputs": [],
      "stateMutability": "nonpayable",
      "type": "function"
    },
    {
      "inputs": [
        {
          "internalType": "address",
          "name": "_seas4Contract",
          "type": "address"
        }
      ],
      "name": "updateSeas4Contract",
      "outputs": [],
      "stateMutability": "nonpayable",
      "type": "function"
    },
    {
      "inputs": [
        {
          "internalType": "address",
          "name": "",
          "type": "address"
        },
        {
          "internalType": "uint256",
          "name": "",
          "type": "uint256"
        }
      ],
      "name": "userClaimedMilestones",
      "outputs": [
        {
          "internalType": "uint256",
          "name": "",
          "type": "uint256"
        }
      ],
      "stateMutability": "view",
      "type": "function"
    },
    {
      "inputs": [
        {
          "internalType": "uint256",
          "name": "_grantId",
          "type": "uint256"
        },
        {
          "internalType": "address",
          "name": "_token",
          "type": "address"
        },
        {
          "internalType": "uint256",
          "name": "_amount",
          "type": "uint256"
        },
        {
          "internalType": "address",
          "name": "_recipient",
          "type": "address"
        }
      ],
      "name": "withdrawFundsFromGrant",
      "outputs": [],
      "stateMutability": "nonpayable",
      "type": "function"
    }
  ],
  "bytecode": "0x6080806040523461013857602081617d06803803809161001f8285610196565b83398101031261013857516001600160a01b03811690819003610138573315610183575f8054336001600160a01b03198216811783556040519290916001600160a01b0316907f8be0079c531659141344cd1fd0a4f28419497f9722a3daafe3b4186f6b6457e09080a3600180556002600855811561014f57600280546001600160a01b03191683179055604051637116aa8d60e11b8152602081600481865afa908115610144575f916100fe575b50600380546001600160a01b0319166001600160a01b0392909216919091179055604051617b3890816101ce8239f35b90506020813d60201161013c575b8161011960209383610196565b8101031261013857516001600160a01b038116810361013857816100ce565b5f80fd5b3d915061010c565b6040513d5f823e3d90fd5b62461bcd60e51b815260206004820152600f60248201526e496e76616c6964206164647265737360881b6044820152606490fd5b631e4fbdf760e01b5f525f60045260245ffd5b601f909101601f19168101906001600160401b038211908210176101b957604052565b634e487b7160e01b5f52604160045260245ffdfe6103a06040526004361015610012575f80fd5b5f3560e01c806302d52f1714615e665780630421772414615be45780630aede853146159395780630b261452146159055780630c0debea14615858578063165090c3146156635780631655f827146152ed578063186964201461511b578063186f359414614f375780631cead9a714614eff57806320545cbb14614ed057806320aabf7514614e5e57806323643a1a14614a875780632442e1cb146148d05780633205678314614879578063323bb1841461484a57806336a0618e146147c757806342dd3cfd14614786578063430096b51461475c5780634649363d1461471457806346941357146146cd578063477216d51461469e5780634bea02131461456557806352766d80146145015780635784f958146144cd5780635a8ead9514613ce65780635b83831e146139fd5780635bdb2e6b146139e05780635cee9f7914613988578063676cc103146137ad5780636835fca214612f175780636969f37d14612ea75780636e2a373a14612c15578063709f824314612913578063715018a6146128cf57806374bfb09c146120c65780637c1b6afe146115715780637ded5cb91461212c5780637e662926146120e35780637fdfbe6b146120c657806389c182aa14611fa75780638d61f94014611ca95780638da5cb5b14611c825780638f4cf24714611c655780639201f66314611c655780639521721114611b935780639be9141814611b4a578063a6ab558014611b03578063a7eded1314611abc578063ad5f2aba1461190f578063b2b34df5146118f4578063b8c0699f1461165b578063b8cc6c931461158e578063bb8b3ea914611571578063c38a87831461123a578063c626e30914611212578063c669c498146111e2578063c9e5592514610e6a578063d1a4e01714610ddc578063d351ead814610d9b578063d444b9a214610d23578063dd206b5014610a9c578063e15702f814610a36578063e22d551a14610a0e578063e2bf8b14146109e4578063e49c5ea3146108cd578063e65e16a81461087f578063e7102ce314610864578063e89e4ed61461066c578063e91e0ff314610623578063f0720af1146105de578063f2fde38b1461056c578063f4287397146105205763f454934a14610348575f80fd5b3461051c57604036600319011261051c5760043561036461629e565b9061037260075482106164a4565b805f52600f60205260405f2060018060a01b03600254165f6001830154602460405180948193631e1e7e5960e31b835260048301525afa908115610511575f916104e7575b50336001600160a01b039091160361049357815f52601360205260405f2060018060a01b0384165f5260205260ff60405f2054161561045e576001600160a01b03929092165f818152600c90930160209081526040808520805460ff199081169091558486526013835281862084875290925284208054909116905533929091907f1e6d4cb8101454c05e1c979fe97ed93246bce85f048f68a39d4884c9d13f392c9080a4005b60405162461bcd60e51b815260206004820152600d60248201526c139bdd0818481cdd195dd85c99609a1b6044820152606490fd5b60405162461bcd60e51b815260206004820152602660248201527f4f6e6c792070726f6a656374206f776e65722063616e2072656d6f766520737460448201526565776172647360d01b6064820152608490fd5b61050391503d805f833e6104fb8183616044565b8101906169b8565b50505050505090505f6103b7565b6040513d5f823e3d90fd5b5f80fd5b3461051c57604036600319011261051c5761053961629e565b6004355f52600f602052600d60405f20019060018060a01b03165f52602052602060ff60405f2054166040519015158152f35b3461051c57602036600319011261051c576105856162b4565b61058d6177a8565b6001600160a01b031680156105cb575f80546001600160a01b03198116831782556001600160a01b0316905f516020617a835f395f51905f529080a3005b631e4fbdf760e01b5f525f60045260245ffd5b3461051c57602036600319011261051c576004355f52600f60205261061f61060b600b60405f200161669c565b604051918291602083526020830190616230565b0390f35b3461051c57604036600319011261051c5761063c61629e565b6004355f52600e60205260405f209060018060a01b03165f52602052602060ff60405f2054166040519015158152f35b3461051c57602036600319011261051c576004355f52600a60205260405f20805490600181015461012052600281016106a490616132565b610140526106b460038201616132565b916106c160048301616132565b6005830154600784015460088501546009860154600a870154600b88015460ff90941694936001600160a01b0316929091906106ff600c8a01616132565b9561070c600d8b01616132565b97600160a01b60019003600e8c01541661010052600f8b01549b60108c015460ff169a60118d01549c6012810154608052601381015460a0526014015460ff1660e05260405160c05260c051526101205160c0516020015260c051604001610280905260c051610280016101405190610784916161e9565b60c051810360c05160600152610799916161e9565b60c051810360c051608001526107ae916161e9565b9560c05160a0015260c05160c0016107c59161633c565b60c05160e0015260c051610100015260c051610120015260c051610140015260c051810360c05161016001526107fa916161e9565b60c051810360c0516101800152610810916161e9565b926101005160c0516101a0015260c0516101c00152151560c0516101e0015260c051610200015260805160c051610220015260a05160c051610240015260e051151560c051610260015260c051900360c051f35b3461051c575f36600319011261051c57602060405160058152f35b3461051c57602036600319011261051c576004355f52600f60205260405f2060018060a01b036019820154169061061f6108c06017601a8401549301616132565b9160405193849384616349565b3461051c57602036600319011261051c576004356108ee60075482106164a4565b6108f661700c565b805f52600f60205260405f20600281015460ff8160081c1660088110156109d05760046109239114616f1f565b600260ff8216610932816161d2565b036109bd5750600301546001600160a01b03165b336001600160a01b0390911603610966576109609061739d565b60018055005b60405162461bcd60e51b815260206004820152602960248201527f4f6e6c79206d696c6573746f6e652061737369676e65652063616e20636c61696044820152686d207265776172647360b81b6064820152608490fd5b60101c6001600160a01b03169050610946565b634e487b7160e01b5f52602160045260245ffd5b3461051c57602036600319011261051c576004355f52600d60205261061f61060b60405f2061669c565b3461051c575f36600319011261051c576003546040516001600160a01b039091168152602090f35b3461051c57602036600319011261051c57600435610a526177a8565b600a8111610a5f57600855005b60405162461bcd60e51b81526020600482015260156024820152744665652063616e6e6f74206578636565642031302560581b6044820152606490fd5b3461051c57602036600319011261051c57600435610abd60075482106164a4565b610ac561700c565b805f52600f60205260405f209060018060a01b0360025416905f6001840154602460405180958193631e1e7e5960e31b835260048301525afa918215610511575f92610cff575b506001600160a01b03821690338203610cba576002840160ff815460081c16600881101590816109d0578015918215610cad575b8215610c9c575b505015610c4657805461ff00191661070017905592600a8101906008015f5b8154811015610c1a57610b7981836162e0565b905460039190911b1c6001600160a01b03165f8181526020859052604090205490859082159088908215610bb5575b5050505050600101610b66565b6001600160a01b038181165f90815260208a90526040812055600354168103610c055750505f8093819382938390610bfc575bf115610511576001905b9084888781610ba8565b506108fc610be8565b610c15935060019594925061776d565b610bf2565b33867fca3ebfb066a86bb2121231b1fe0633ef66dc72e84276a5fa404ef4a32c0f20195f80a360018055005b60405162461bcd60e51b815260206004820152602860248201527f43616e6e6f742063616e63656c206d696c6573746f6e6520696e2063757272656044820152676e7420737461746560c01b6064820152608490fd5b9091506109d0576005148680610b47565b506001811491505f610b40565b60405162461bcd60e51b815260206004820152601d60248201527f4f6e6c792070726f6a656374206f776e65722063616e2063616e63656c0000006044820152606490fd5b610d149192503d805f833e6104fb8183616044565b50505050505090509083610b0c565b3461051c57602036600319011261051c576004355f52600b60205260405f206040519081602082549182815201915f5260205f20905f5b818110610d855761061f85610d7181870382616044565b604051918291602083526020830190616309565b8254845260209093019260019283019201610d5a565b3461051c57602036600319011261051c576004355f52600a60205260405f2060018060a01b03600e820154169061061f6108c0600d600f8401549301616132565b3461051c57602036600319011261051c576004355f52600f60205260405f205f905f600b8201600d81549301915b838110610e1c57602085604051908152f35b610e2681836162e0565b905460039190911b1c6001600160a01b03165f9081526020849052604090205460ff16610e56575b600101610e0a565b93610e62600191616950565b949050610e4e565b610e7336616457565b610e8360079392935483106164a4565b610e8b61700c565b610ea183518251811490816111d8575b50616c03565b815f52600f60205260405f2090600282019160ff835460081c1660088110156109d05780159081156111cd575b501561118857925f925f9160018060a01b0360035416925b8751811015610f3257836001600160a01b03610f02838b616bb1565b511614610f12575b600101610ee6565b94610f2a600191610f238888616bb1565b51906168e7565b959050610f0a565b87838389888a80611176575b505f93925f946008840195600a6009860195015b885182101561110f576001600160a01b03610f6d838b616bb1565b511691610f7a8187616bb1565b51600254604051633462561360e11b81526004810186905290602090829060249082906001600160a01b03165afa8015610511575f906110d5575b610fbf9150616d5d565b610fca811515616d9f565b5f5f8b54905b868d83831061109e575b505050501561108f575b60018060a01b0384165f528760205260405f206110028282546168e7565b905560018060a01b0384165f528260205260405f206110228282546168e7565b90556003546001600160a01b0316840361107a576110448160019495966168e7565b945b604051918252867f5cada45dbe767da9cc3bdb1035a852ae07ea0efd907294e395bf02514cd1703660203394a40190610f52565b6001929361108a82303384617724565b611046565b611099848b616b70565b610fe4565b826110a8916162e0565b905460039190911b1c6001600160a01b0316146110c757600101610fd0565b50505060018c80868d610fda565b506020813d8211611107575b816110ee60209383616044565b8101031261051c57611102610fbf9161654a565b610fb5565b3d91506110e1565b8683803411611149575b5060ff815460081c1660088110156109d057156111365760018055005b805461ff00191661010017905580610960565b5f8080611157819434616deb565b81811561116d575b3390f1156105115781611119565b506108fc61115f565b61118290341015616d18565b85610f3e565b60405162461bcd60e51b815260206004820152601f60248201527f4d696c6573746f6e65206e6f7420696e2066756e6461626c65207374617465006044820152606490fd5b600191501486610ece565b9050151585610e9b565b3461051c57604036600319011261051c57602061120861120061629e565b600435616e80565b6040519015158152f35b3461051c575f36600319011261051c576002546040516001600160a01b039091168152602090f35b3461051c57611248366160c8565b61125560075483106164a4565b61126181511515616811565b815f52600f60205260405f2091600283018054600260ff8216611283816161d2565b036114a75760038501546001600160a01b031633036114685760ff9060081c1660088110156109d05760020361142b575b825160078501906001600160401b038111611417576112dd816112d784546160fa565b84616659565b806020601f82116001146113b3575f916113a8575b508160011b915f199060031b1c19161790559190915b805461ff001916610300179055426013840155600b830192600d01905f5b8454811015611369578061133c600192876162e0565b838060a01b0391549060031b1c16828060a01b03165f528360205260405f2060ff19815416905501611326565b50827fb3caf76898f9304bcc6aabd2e3b521744b709a9d499f8e654ed4fa0ccf56c0f660405160208152806113a3339560208301906161e9565b0390a3005b9050850151876112f2565b5f8481528181209250601f198416905b8181106113ff575090836001949392106113e7575b5050811b019055919091611308565b8701515f1960f88460031b161c1916905587806113d8565b9192602060018192868c0151815501940192016113c3565b634e487b7160e01b5f52604160045260245ffd5b60405162461bcd60e51b8152602060048201526015602482015274135a5b195cdd1bdb99481b9bdd0818db185a5b5959605a1b6044820152606490fd5b60405162461bcd60e51b815260206004820152601760248201527613db9b1e4818db185a5b595c8818d85b881cdd589b5a5d604a1b6044820152606490fd5b33601082901c6001600160a01b03160361152c5760ff9060081c1660088110156109d05760018114908115611521575b506112b45760405162461bcd60e51b815260206004820152601d60248201527f496e76616c69642073746174757320666f72207375626d697373696f6e0000006044820152606490fd5b6005915014856114d7565b60405162461bcd60e51b815260206004820152601d60248201527f4f6e6c792061737369676e656420757365722063616e207375626d69740000006044820152606490fd5b3461051c575f36600319011261051c576020600554604051908152f35b3461051c57602036600319011261051c576004355f52600960205260405f20805461061f60018060a01b036001840154169260028101549060ff60038201541660088201546009830154600a8401549060ff600b860154169261161e600c870154956116016004600d8a0154990161669c565b986040519c8d9c8d5260208d015260408c015260608b0190616223565b608089015260a088015260c0870152611636816161d2565b60e0860152610100850152610120840152610160610140840152610160830190616230565b3461051c57604036600319011261051c5760043561167761629e565b5f828152600e6020908152604080832033845290915290205460ff168015611879575b8015611865575b6116aa906168f4565b6001600160a01b0381166116bf811515616bc5565b6116c761700c565b825f52600960205260405f2092600b8401805460ff81166116e7816161d2565b61182d5760ff19166002179055926117016004820161669c565b9261170c8451616e4e565b9360075f9301925b81518110156117d7576001600160a01b0361172f8284616bb1565b511660018060a01b0381165f52846020528560405f20549185831591821561175f575b5050505050600101611714565b6001600160a01b0381165f90815260208a9052604081205584611782878d616bb1565b526003546001600160a01b031681036117c25750505f80938193829383906117b9575bf115610511576001905b9085898581611752565b506108fc6117a5565b6117d2935060019594925061776d565b6117af565b85877f2af8f17db7d288ba8417fe5403d206f7b639aa84ce858f2a8275086ee9f7303461181585611824604051928392604084526040840190616230565b82810360208401523396616309565b0390a360018055005b60405162461bcd60e51b815260206004820152601060248201526f4772616e74206e6f742061637469766560801b6044820152606490fd5b506116aa61187283616f64565b90506116a1565b50600254604051635692e5a160e11b815233600482015290602090829060249082906001600160a01b03165afa908115610511575f916118ba575b5061169a565b90506020813d6020116118ec575b816118d560209383616044565b8101031261051c576118e69061654a565b836118b4565b3d91506118c8565b3461051c575f36600319011261051c57602060405160018152f35b3461051c57604036600319011261051c5760043561192b61629e565b5f828152600e6020908152604080832033845290915290205460ff168015611a41575b8015611a2d575b61195e906168f4565b6001600160a01b03811690611974821515616bc5565b825f52600e60205260405f20825f5260205260ff60405f2054166119f0576119a790835f52600d60205260405f20616b70565b815f52600e60205260405f20815f5260205260405f20600160ff1982541617905533917ff9f92f46acd7656fc6fc34bc9f1936c8fef72d0dfd1a41f8064b01162d44ce155f80a4005b60405162461bcd60e51b815260206004820152601560248201527420b63932b0b23c90309033b930b73a1030b236b4b760591b6044820152606490fd5b5061195e611a3a83616f64565b9050611955565b50600254604051635692e5a160e11b815233600482015290602090829060249082906001600160a01b03165afa908115610511575f91611a82575b5061194e565b90506020813d602011611ab4575b81611a9d60209383616044565b8101031261051c57611aae9061654a565b83611a7c565b3d9150611a90565b3461051c57604036600319011261051c57611ad561629e565b6004355f52600a602052600660405f20019060018060a01b03165f52602052602060405f2054604051908152f35b3461051c57604036600319011261051c57611b1c61629e565b6004355f52600f602052600960405f20019060018060a01b03165f52602052602060405f2054604051908152f35b3461051c57604036600319011261051c576001600160a01b03611b6b6162b4565b165f52601560205260405f206024355f52602052602060ff60405f2054166040519015158152f35b3461051c57602036600319011261051c5760046020611bb06162b4565b611bb86177a8565b6001600160a01b0316611bcc811515616bc5565b600280546001600160a01b03191682179055604051637116aa8d60e11b815292839182905afa908115610511575f91611c23575b50600380546001600160a01b0319166001600160a01b0392909216919091179055005b90506020813d602011611c5d575b81611c3e60209383616044565b8101031261051c57516001600160a01b038116810361051c5781611c00565b3d9150611c31565b3461051c575f36600319011261051c576020600654604051908152f35b3461051c575f36600319011261051c575f546040516001600160a01b039091168152602090f35b611cb236616457565b611cc26005939293548310616745565b815f526009602052611ce760ff600b60405f20015416611ce1816161d2565b15616788565b611cef61700c565b611d0483518251811490816111d85750616c03565b815f52600960205260405f20611d2a60ff600b83015416611d24816161d2565b15616df8565b6003545f946001600160a01b0390911691855b8251811015611d8257836001600160a01b03611d598386616bb1565b511614611d69575b600101611d3d565b95611d7a600191610f238988616bb1565b969050611d61565b5083858780611f95575b505f5f90600485019160076005870196015b8751821015611f5a576001600160a01b03611db9838a616bb1565b511691611dc68188616bb1565b51926024602060018060a01b036002541660405192838092633462561360e11b82528660048301525afa8015610511575f90611f20575b611e079150616d5d565b611e12841515616d9f565b5f5f8754905b818110611eea575b505015611edb575b60018060a01b0381165f528860205260405f20611e468582546168e7565b905560018060a01b0381165f528260205260405f20611e668582546168e7565b905560035487906001600160a01b03168203611eb5575f516020617aa35f395f51905f52611eab611e9b8760019798996168e7565b975b604051918291339083616cff565b0390a30190611d9e565b5f516020617aa35f395f51905f52611eab86611ed660019798303388617724565b611e9d565b611ee58187616b70565b611e28565b83611ef5828b6162e0565b905460039190911b1c6001600160a01b031614611f1457600101611e18565b50505060018b80611e20565b506020813d8211611f52575b81611f3960209383616044565b8101031261051c57611f4d611e079161654a565b611dfd565b3d9150611f2c565b82803411611f685760018055005b5f8080611f76819434616deb565b818115611f8c575b3390f1156105115780610960565b506108fc611f7e565b611fa190341015616d18565b84611d8c565b3461051c57602036600319011261051c576004355f52600f60205260405f206008810190815490611fd782616375565b91611fe56040519384616044565b808352601f19611ff482616375565b0136602085013761200481616e4e565b9061200e81616e4e565b925f95600a600983019201965b83811061205e576120428761061f8861205089604051958695606087526060870190616230565b908582036020870152616309565b908382036040850152616309565b8061206b600192846162e0565b838060a01b0391549060031b1c1680612084838b616bb1565b52828060a01b0381165f528460205260405f20546120a28389616bb1565b52828060a01b03165f528860205260405f20546120bf8289616bb1565b520161201b565b3461051c575f36600319011261051c576020600754604051908152f35b3461051c57604036600319011261051c576120fc61629e565b6004355f52601360205260405f209060018060a01b03165f52602052602060ff60405f2054166040519015158152f35b3461051c5760a036600319011261051c576004356024356001600160401b03811161051c5761215f903690600401616082565b906044356001600160401b03811161051c5761217f903690600401616082565b916064356001600160401b03811161051c5761219f903690600401616082565b60843592805f5260096020526121c560018060a01b03600160405f2001541633146166ed565b6121d26005548210616745565b805f5260096020526121f160ff600b60405f20015416611ce1816161d2565b831515806128c4575b1561288a5761220b83511515616b33565b61221782511515616811565b8394815f52600b60205260405f2093604051808660208298549384815201905f5260205f20925f5b81811061287157505061225492500386616044565b5f5b85518110156122f8576122698187616bb1565b515f52600a60205260405f2060ff600782015416600681101590816109d05780159182156122eb575b82156122da575b82156122c9575b50506122b0575b50600101612256565b6001919860056122c2920154906168e7565b97906122a7565b9091506109d0576004148a806122a0565b8092506109d0576002811491612299565b506001811491505f612292565b50856064881161281c57835f52600960205260405f2091600a8301958654801515805f1461281457815b816127fd575b50612793576006549061233a82616950565b600655815f52600a60205260405f209682885588600189015560028801855160018060401b03811161141757612374816112d784546160fa565b806020601f8211600114612730575f91612725575b508160011b915f199060031b1c19161790555b805160038901916001600160401b0382116114175781906123c7826123c186546160fa565b86616659565b602090601f83116001146126c2575f926126b7575b50508160011b915f199060031b1c19161790555b825160048801906001600160401b03811161141757612413816112d784546160fa565b806020601f8211600114612656575f9161264b575b508160011b915f199060031b1c19161790555b846005880155601287015542600887015561245a6009860154426168e7565b60098701555f975480151580612642575b6125ba575b5060078697959701600160ff198254161790555f946004880193600660058a019801965b8554811015612532576124a781876162e0565b905460039190911b1c6001600160a01b03165f81815260208b905260409020549091906064906124d8908a90616e3b565b04918c15612529578c60640360648111612515576124fa606491600195616e3b565b04905b838060a01b03165f528960205260405f205501612494565b634e487b7160e01b5f52601160045260245ffd5b600192906124fd565b506125a15f5160206179e35f395f51905f5291876125af8c865f52600b60205261255f8860405f20616516565b865f52600c60205260405f20885f5260205260405f20600160ff198254161790556001808060a01b0391015416976040519485946060865260608601906161e9565b9084820360208601526161e9565b9060408301520390a4005b62278d008101809111612515574211156125d5575b88612470565b96506005966005601387015580877fab240004da8987e9e2d839017c356c389819653efbb91ea7fd122baefc6132ba6080604051600581526040602082015260186040820152775375626d697474656420616674657220646561646c696e6560401b6060820152a36125cf565b5080421161246b565b90508501518c612428565b5f8481528181209250601f198416905b81811061269f57509083600194939210612687575b5050811b01905561243b565b8701515f1960f88460031b161c191690558c8061267b565b9192602060018192868c015181550194019201612666565b015190508c806123dc565b5f8581528281209350601f198516905b81811061270d57509084600195949392106126f5575b505050811b0190556123f0565b01515f1960f88460031b161c191690558c80806126e8565b929360206001819287860151815501950193016126d2565b90508701518d612389565b5f8481528181209250601f198416905b8a82821061277b5750509083600194939210612763575b5050811b01905561239c565b8901515f1960f88460031b161c191690558d80612757565b60018495602093958493015181550194019201612740565b608460405162461bcd60e51b815260206004820152604060248201527f4d696c6573746f6e65207375626d697373696f6e20646561646c696e6520686160448201527f732070617373656420616e64206d696c6573746f6e65206973206c6f636b65646064820152fd5b905062278d00810180911161251557421189612328565b5f1991612322565b60405162461bcd60e51b815260206004820152602760248201527f546f74616c206d696c6573746f6e652070657263656e746167652065786365656044820152666473203130302560c81b6064820152608490fd5b845483526001948501948a94506020909301920161223f565b60405162461bcd60e51b8152602060048201526012602482015271496e76616c69642070657263656e7461676560701b6044820152606490fd5b5060648411156121fa565b3461051c575f36600319011261051c576128e76177a8565b5f80546001600160a01b0319811682556001600160a01b03165f516020617a835f395f51905f528280a3005b3461051c57608036600319011261051c5760043561292f61629e565b906044356064356001600160a01b0381169081810361051c575f848152600e6020908152604080832033845290915290205460ff168015612b9a575b8015612b86575b61297b906168f4565b6129886005548510616745565b835f5260096020526129a760ff600b60405f20015416611ce1816161d2565b6129b2821515616bc5565b6129ba61700c565b835f52600960205260405f20906129db60ff600b84015416611d24816161d2565b845f52600b60205260405f2054612b2457600782019160018060a01b0387165f52826020528460405f205410612ae157600590851593612a1b8515616d9f565b60018060a01b0389165f5260205260405f20612a38878254616deb565b905560018060a01b0388165f520160205260405f20612a58858254616deb565b90556003546001600160a01b0396871696168603612abd575082825f92612ab3575b5f92839283928392f115610511575f5160206179c35f395f51905f52916060915b6040519182526020820152336040820152a360018055005b6108fc9250612a7a565b83915091612adc5f5160206179c35f395f51905f52946060948861776d565b612a9b565b60405162461bcd60e51b815260206004820152601b60248201527a496e73756666696369656e7420657363726f7765642066756e647360281b6044820152606490fd5b60405162461bcd60e51b815260206004820152603460248201527f43616e6e6f742077697468647261772066756e6473206166746572206d696c656044820152731cdd1bdb995cc8185c99481cdd589b5a5d1d195960621b6064820152608490fd5b5061297b612b9385616f64565b9050612972565b50600254604051635692e5a160e11b815233600482015290602090829060249082906001600160a01b03165afa908115610511575f91612bdb575b5061296b565b90506020813d602011612c0d575b81612bf660209383616044565b8101031261051c57612c079061654a565b86612bd5565b3d9150612be9565b3461051c57612c233661626c565b91805f52600e60205260405f2060018060a01b0333165f5260205260ff60405f2054168015612e2c575b8015612e18575b612c5d906168f4565b612c6a6005548210616745565b805f526009602052612c8960ff600b60405f20015416611ce1816161d2565b612c9660065483106167ca565b612ca2835115156165b4565b805f52600c60205260405f20825f52602052612cc460ff60405f205416616856565b815f52600a60205260405f20600781019060ff8254169160068310156109d057612cf26001600d94146165fd565b612d01846001840154146168a0565b805460ff1916600317905542600f820155600e810180546001600160a01b0319163317905584519101906001600160401b03811161141757612d47816112d784546160fa565b806020601f8211600114612db7575f91612dac575b508160011b915f199060031b1c19161790555b7f4dfc84da87020df96522cd1be73d8e0a2d933702208e9a44d3f7358ed88a9cd36040516020815280612da7339660208301906161e9565b0390a4005b905085015186612d5c565b5f8481528181209250601f198416905b818110612e0057509083600194939210612de8575b5050811b019055612d6f565b8701515f1960f88460031b161c191690558680612ddc565b9192602060018192868c015181550194019201612dc7565b50612c5d612e2582616f64565b9050612c54565b50600254604051635692e5a160e11b815233600482015290602090829060249082906001600160a01b03165afa908115610511575f91612e6d575b50612c4d565b90506020813d602011612e9f575b81612e8860209383616044565b8101031261051c57612e999061654a565b84612e67565b3d9150612e7b565b3461051c57604036600319011261051c576060612ec261629e565b6004355f9081526009602090815260408083206001600160a01b039094168352600584018252808320546006850183528184205460079095018352928190205481519384529183019390935291810191909152f35b61010036600319011261051c57600435602435600281101561051c57612f3b6162ca565b6064356001600160401b03811161051c57612f5a90369060040161638c565b926084356001600160401b03811161051c57612f7a9036906004016163fa565b6001600160a01b039092169260c43592919060a435612f9a861515616bc5565b6001811015806137a2575b1561375d57612fb261700c565b612fc787518551811490816137535750616c03565b84156136fe57816134665760025460405163e935b7b160e01b81526001600160a01b0390911690602081600481855afa908115610511575f91613433575b506024916130155f928710616aaa565b60405192838092631e1e7e5960e31b82528860048301525afa801561051157613045915f91613411575b50616aef565b9491945b6005549061305682616950565b600555815f52600960205260405f2095828755600187018560018060a01b03198254161790558760028801556003870160ff1981541660ff861617905581600888015580600988015560e435600a880155600b870160ff19815416905542600c8801555f965f9560018060a01b0360035416965b8b5181101561310f57876001600160a01b036130e6838f616bb1565b5116146130f6575b6001016130ca565b98613107600191610f238c8c616bb1565b9990506130ee565b508a9795965093949293898980156133c25761312d90341015616d18565b969592965b5f935f9760048501976007600587019601965b8c518b101561325a576001600160a01b036131608c8f616bb1565b51169061316d8c8b616bb1565b51916024602060018060a01b036002541660405192838092633462561360e11b82528660048301525afa8015610511575f90613220575b6131ae9150616d5d565b6131b9831515616d9f565b6131c3818d616b70565b6001600160a01b038181165f90815260208b81526040808320879055908d9052902084905560035416810361320857506001916131ff916168e7565b9a5b0199613145565b60019261321b919d929d30903390617724565b613201565b506020813d8211613252575b8161323960209383616044565b8101031261051c5761324d6131ae9161654a565b6131a4565b3d915061322c565b918c918c8a94803411613395575b5060018303613377576002546040516315663e3360e21b81526004810189905295905f90879060249082906001600160a01b03165afa9081156105115761332661331596613334935f516020617a635f395f51905f52995f91613348575b508a5f52600d6020526132dc8160405f20616b70565b5f8b8152600e602090815260408083206001600160a01b03909416835292905220805460ff191660011790555b60405197888098616223565b60a0602088015260a0870190616230565b908582036040870152616309565b91606084015260808301520390a460018055005b61336491503d805f833e61335c8183616044565b810190616c48565b505050505050505050505090508d6132c6565b6133345f516020617a635f395f51905f529561332661331596613309565b5f80806133a3819434616deb565b8181156133b9575b3390f1156105115788613268565b506108fc6133ab565b50346133d15796959296613132565b60405162461bcd60e51b815260206004820152601860248201527710d15313c81cd95b9d08189d5d081b9bdd081b995959195960421b6044820152606490fd5b61342591503d805f833e6104fb8183616044565b50509450505050508961303f565b90506020813d60201161345e575b8161344e60209383616044565b8101031261051c57516024613005565b3d9150613441565b600254604051633c81d3ab60e11b81526001600160a01b0390911690602081600481855afa908115610511575f916136cc575b5084101561368d576040516315663e3360e21b8152600481018590525f81602481855afa908115610511575f91613666575b50156136285760405163a08ff7d360e01b815290602082806134f1338960048401616cff565b0381845afa918215610511575f926135ec575b50811561357c575b501561351a57949194613049565b60405162461bcd60e51b815260206004820152603460248201527f4f6e6c792063616d706169676e2061646d696e2063616e206372656174652063604482015273185b5c185a59db8b5b1a5b9ad9590819dc985b9d60621b6064820152608490fd5b604051635692e5a160e11b81523360048201529150602090829060249082905afa908115610511575f916135b2575b508861350c565b90506020813d6020116135e4575b816135cd60209383616044565b8101031261051c576135de9061654a565b886135ab565b3d91506135c0565b9091506020813d602011613620575b8161360860209383616044565b8101031261051c576136199061654a565b9089613504565b3d91506135fb565b60405162461bcd60e51b815260206004820152601660248201527543616d706169676e206973206e6f742061637469766560501b6044820152606490fd5b61367a91503d805f833e61335c8183616044565b509a5050505050505050505050896134cb565b60405162461bcd60e51b815260206004820152601760248201527610d85b5c185a59db88191bd95cc81b9bdd08195e1a5cdd604a1b6044820152606490fd5b90506020813d6020116136f6575b816136e760209383616044565b8101031261051c575189613499565b3d91506136da565b60405162461bcd60e51b815260206004820152602760248201527f5265766965772074696d65206c6f636b206d75737420626520677265617465726044820152660207468616e20360cc1b6064820152608490fd5b9050151589610e9b565b60405162461bcd60e51b815260206004820152601d60248201527f5369746520666565206d757374206265206265747765656e20312d35250000006044820152606490fd5b506005811115612fa5565b3461051c57604036600319011261051c576004356137c961629e565b6137d660075483106164a4565b6001600160a01b038116906137ec821515616bc5565b825f52600f60205260405f209060018060a01b03600254165f6001840154602460405180948193631e1e7e5960e31b835260048301525afa908115610511575f91613966575b50336001600160a01b039091160361391557600c8201835f528060205260ff60405f2054166138da5761386b82600b6138919501616b70565b835f5260205260405f20600160ff19825416179055835f52601260205260405f20616b70565b815f52601360205260405f20815f5260205260405f20600160ff1982541617905533917f8444a930909d059c9e3838d318d91d6642fa100520063a3a127dcc4730b8499d5f80a4005b60405162461bcd60e51b815260206004820152601360248201527220b63932b0b23c9030b71030b8383937bb32b960691b6044820152606490fd5b60405162461bcd60e51b815260206004820152602360248201527f4f6e6c792070726f6a656374206f776e65722063616e2061646420737465776160448201526272647360e81b6064820152608490fd5b61397a91503d805f833e6104fb8183616044565b505050505050905085613832565b3461051c57604036600319011261051c576139a16162b4565b6001600160a01b03165f9081526014602052604090208054602435919082101561051c576020916139d1916162e0565b90549060031b1c604051908152f35b3461051c575f36600319011261051c576020600854604051908152f35b3461051c57613a0b3661626c565b91805f52600e60205260405f2060018060a01b0333165f5260205260ff60405f2054168015613c6b575b8015613c57575b613a45906168f4565b613a526005548210616745565b805f526009602052613a7160ff600b60405f20015416611ce1816161d2565b613a7e60065483106167ca565b613a8661700c565b825115613c1657805f52600c60205260405f20825f52602052613aaf60ff60405f205416616856565b815f52600a60205260405f206007810160ff81541660068110156109d0576001613ad991146165fd565b613ae8836001840154146168a0565b805460ff1916600217905542600a820155600b810180546001600160a01b031916331790558351600c8201906001600160401b03811161141757613b30816112d784546160fa565b6020601f8211600114613bb257908060109493925f91613ba7575b508160011b915f199060031b1c19161790555b01805460ff19169055613b71828261702c565b5f516020617a035f395f51905f52613b94604051946040865260408601906161e9565b935f60208201528033950390a460018055005b905087015188613b4b565b601f19821690835f52805f20915f5b818110613bfe5750918391601096959460019410613be6575b5050811b019055613b5e565b8901515f1960f88460031b161c191690558880613bda565b9192602060018192868d015181550194019201613bc1565b60405162461bcd60e51b8152602060048201526019602482015278105c1c1c9bdd985b081b595cdcd859d9481c995c5d5a5c9959603a1b6044820152606490fd5b50613a45613c6482616f64565b9050613a3c565b50600254604051635692e5a160e11b815233600482015290602090829060249082906001600160a01b03165afa908115610511575f91613cac575b50613a35565b90506020813d602011613cde575b81613cc760209383616044565b8101031261051c57613cd89061654a565b84613ca6565b3d9150613cba565b3461051c5761014036600319011261051c57600435602435600381101561051c57613d0f6162ca565b6064356001600160401b03811161051c57613d2e903690600401616082565b6084356001600160401b03811161051c57613d4d903690600401616082565b9160a4356001600160401b03811161051c57613d6d903690600401616082565b94610104359081151580920361051c57610124356001600160401b03811161051c57613d9d90369060040161638c565b9360018060a01b0360025416604051631e1e7e5960e31b81528360048201525f81602481855afa908115610511575f916144ab575b50336001600160a01b03909116036144545760405163e935b7b160e01b8152602081600481855afa908115610511575f91614421575b50602491613e185f928610616aaa565b60405192838092631e1e7e5960e31b82528760048301525afa801561051157613e47915f916143ff5750616aef565b613e5381511515616b33565b60e435156143ba5760075493613e6885616950565b600755845f52600f60205260405f20938585558360018601556002850197613e8f8a6161d2565b885461ffff191660ff8b16178955835160048701906001600160401b03811161141757613ec0816112d784546160fa565b806020601f8211600114614359575f9161434e575b508160011b915f199060031b1c19161790555b805160058701916001600160401b038211611417578190613f0d826123c186546160fa565b602090601f83116001146142eb575f926142e0575b50508160011b915f199060031b1c19161790555b895160068601906001600160401b03811161141757613f59816112d784546160fa565b6020601f82116001146142735781906024999a9b9c9d5f92614268575b50508160011b915f199060031b1c19161790555b60c435601186015560e435600e860155600f85019060ff801983541691161790554260108501555f60018060a01b036002541660405196878092631e1e7e5960e31b82528760048301525afa948515610511575f95614244575b50613fee896161d2565b886141cc5750613ffe84886164ef565b600c600b84019361400f8686616b70565b019360018060a01b03165f528360205260405f20600160ff198254161790555f5b865181101561413d576001906001600160a01b0361404e828a616bb1565b511615158061410f575b614063575b01614030565b61407e828060a01b03614076838b616bb1565b511686616b70565b818060a01b0361408e828a616bb1565b5116828060a01b03165f528560205260405f208260ff19825416179055865f5260126020526140d260405f20838060a01b036140ca848c616bb1565b511690616b70565b865f52601360205260405f20828060a01b036140ee838b616bb1565b5116838060a01b03165f5260205260405f208260ff1982541617905561405d565b50818060a01b03614120828a616bb1565b5116828060a01b03165f528560205260ff60405f20541615614058565b8886847fb534a209c3b21ffb8a8d855e65691c6dc1f13b5df279a5cac77de7fe1c20578a858c835f5260106020526141788560405f20616516565b835f52601160205260405f20855f5260205260405f20600160ff1982541617905560018060a01b03905460101c1694612da760405192826141b985946161d2565b83526040602084015260408301906161e9565b6141d5896161d2565b600189146141e4575b50613ffe565b6001600160a01b03811615614203576141fd90886164ef565b886141de565b60405162461bcd60e51b8152602060048201526019602482015278105cdcda59db9959081859191c995cdcc81c995c5d5a5c9959603a1b6044820152606490fd5b6142599195503d805f833e6104fb8183616044565b50505050505090509389613fe4565b015190508d80613f76565b601f1982169c835f52815f209d5f5b8181106142c357509160249a9b9c9d9e918460019594106142ab575b505050811b019055613f8a565b01515f1960f88460031b161c191690558d808061429e565b919e8f60016020928684930151815501940192019e91929e614282565b015190508d80613f22565b5f8581528281209350601f198516905b818110614336575090846001959493921061431e575b505050811b019055613f36565b01515f1960f88460031b161c191690558d8080614311565b929360206001819287860151815501950193016142fb565b90508601518e613ed5565b5f8481528181209250601f198416905b8181106143a25750908360019493921061438a575b5050811b019055613ee8565b8801515f1960f88460031b161c191690558e8061437e565b9192602060018192868d015181550194019201614369565b60405162461bcd60e51b815260206004820152601e60248201527f526571756972656420617070726f76616c73206d757374206265203e203000006044820152606490fd5b61441391503d805f833e6104fb8183616044565b50509450505050508a61303f565b90506020813d60201161444c575b8161443c60209383616044565b8101031261051c57516024613e08565b3d915061442f565b60405162461bcd60e51b815260206004820152602960248201527f4f6e6c792070726f6a656374206f776e65722063616e2063616c6c207468697360448201526810333ab731ba34b7b760b91b6064820152608490fd5b6144bf91503d805f833e6104fb8183616044565b50505050505090508a613dd2565b3461051c576144db3661620d565b905f52601160205260405f20905f52602052602060ff60405f2054166040519015158152f35b3461051c57602036600319011261051c576004355f52601060205260405f206040519081602082549182815201915f5260205f20905f5b81811061454f5761061f85610d7181870382616044565b8254845260209093019260019283019201614538565b3461051c57604036600319011261051c5761457e61629e565b6004355f52600f60205260405f2060018060a01b0382165f52600c810160205260ff60405f20541691821561460a575b826145eb575b826145c7575b6020836040519015158152f35b600d925060018060a01b03165f5201602052602060ff60405f2054161590826145ba565b915060ff600282015460081c1660088110156109d057600314916145b4565b915060ff600f8201541680614620575b916145ae565b50600254604051635692e5a160e11b81526001600160a01b038481166004830152909160209183916024918391165afa908115610511575f91614664575b5061461a565b90506020813d602011614696575b8161467f60209383616044565b8101031261051c576146909061654a565b8361465e565b3d9150614672565b3461051c576146ac3661620d565b905f52600b60205260405f20805482101561051c576020916139d1916162e0565b3461051c57604036600319011261051c576146e661629e565b6004355f52600f602052600a60405f20019060018060a01b03165f52602052602060405f2054604051908152f35b3461051c576147223661620d565b905f52601260205260405f20805482101561051c57602091614743916162e0565b905460405160039290921b1c6001600160a01b03168152f35b3461051c57602036600319011261051c576004355f52601260205261061f61060b60405f2061669c565b3461051c57602036600319011261051c576004355f52600f60205260405f2060018060a01b036018820154169061061f6108c0601660148401549301616132565b3461051c57602036600319011261051c576004355f52600f60205260405f206002810154600260ff82166147fa816161d2565b14908161482d575b5060209181614817575b506040519015158152f35b600301546001600160a01b03161590508261480c565b60ff915060081c169060088210156109d057906001146020614802565b3461051c576148583661620d565b905f52600d60205260405f20805482101561051c57602091614743916162e0565b3461051c57602036600319011261051c576004355f52600a60205260405f2060ff6007820154169060068210156109d05760016020921490816148c157506040519015158152f35b6009915001544210158261480c565b3461051c57602036600319011261051c576004355f52600a60205260405f20805490600181015461018052600581015491600782015460ff1690600883015490600984015494600a850154600160a01b60019003600b8701541690601087015460ff166101605260118701549760128801549560138901549760148a015460ff16996002810161495f90616132565b6101c05261496f60038201616132565b61497b60048301616132565b91600c0161498890616132565b986040516101a0526101a05152610180516101a051602001526101a05160400161022090526101a051610220016101c051906149c3916161e9565b6101a05181036101a051606001526149da916161e9565b6101a05181036101a051608001526149f1916161e9565b956101a05160a001526101a05160c001614a0a9161633c565b6101a05160e001526101a05161010001526101a05161012001526101a05161014001526101a05181036101a0516101600152614a45916161e9565b936101605115156101a05161018001526101a0516101a001526101a0516101c001526101a0516101e0015215156101a05161020001526101a05190036101a051f35b3461051c57614a95366160c8565b5f828152600f60209081526040808320338452600c81019092529091205460ff168015614dcb575b614ac79150616557565b614ad460075483106164a4565b815f52600f60205260405f206002810160ff815460081c1660088110156109d0576003614b0191146165fd565b335f908152600d8301602081905260409091205460ff16614d9357335f908152600c8401602052604090205460ff16614d75575b5f905f90600b85018054925b838110614d27575050505060ff600f8401541680614cac575b614c9e575b600e8301541115614ba5575b82847fd7af606a9881683758e49bcf4e31d6e4ec402d1f3b6df19f499491232753e09860405160208152806113a3339560208301906161e9565b805461ff0019166104001790554260148201556018810180546001600160a01b03191633179055815192906016016001600160401b03841161141757614bf584614bef83546160fa565b83616659565b602093601f8111600114614c3e5780919293945f91614c33575b508160011b915f199060031b1c19161790555b614c2b8161739d565b908280614b6b565b905084015185614c0f565b601f19811694825f52805f20905f5b878110614c8657508260019495969710614c6e575b5050811b019055614c22565b8601515f1960f88460031b161c191690558580614c62565b9091602060018192858a015181550193019101614c4d565b614ca790616950565b614b5f565b50600254604051635692e5a160e11b815233600482015290602090829060249082906001600160a01b03165afa908115610511575f91614ced575b50614b5a565b90506020813d602011614d1f575b81614d0860209383616044565b8101031261051c57614d199061654a565b86614ce7565b3d9150614cfb565b614d3181836162e0565b905460039190911b1c6001600160a01b03165f9081526020849052604090205460ff16614d61575b600101614b41565b93614d6d600191616950565b949050614d59565b335f908152602082905260409020805460ff19166001179055614b35565b60405162461bcd60e51b815260206004820152601060248201526f105b1c9958591e48185c1c1c9bdd995960821b6044820152606490fd5b50600f015460ff1680614de2575b614ac790614abd565b50600254604051635692e5a160e11b815233600482015290602090829060249082906001600160a01b03165afa8015610511575f90614e23575b9050614dd9565b506020813d602011614e56575b81614e3d60209383616044565b8101031261051c57614e51614ac79161654a565b614e1c565b3d9150614e30565b3461051c57602036600319011261051c576001600160a01b03614e7f6162b4565b165f52601460205260405f206040519081602082549182815201915f5260205f20905f5b818110614eba5761061f85610d7181870382616044565b8254845260209093019260019283019201614ea3565b3461051c57614ede3661620d565b905f52601060205260405f20805482101561051c576020916139d1916162e0565b3461051c57602036600319011261051c576001600160a01b03614f206162b4565b165f526004602052602060405f2054604051908152f35b3461051c57614f453661620d565b614f526005548310616745565b815f526009602052614f7160ff600b60405f20015416611ce1816161d2565b614f7e60065482106167ca565b614f8661700c565b815f52600c60205260405f20815f52602052614fa860ff60405f205416616856565b805f52600a60205260405f20916007830160ff81541660068110156109d0576001614fd391146165fd565b614fe2826001860154146168a0565b600984015442106150d857805460ff1916600217905542600a840155600b830180546001600160a01b0319169055600c830180545f946010929091615026906160fa565b601f81116150b6575b5060478155855262696e6560e81b6001602087205f516020617a435f395f51905f528155015501600160ff1982541617905561506b828261702c565b5f516020617a035f395f51905f5260a060405160408152602360408201525f516020617a435f395f51905f52606082015262696e6560e81b608082015260016020820152a460018055005b818752602087206150d291601f0160051c810190600201616643565b8661502f565b60405162461bcd60e51b815260206004820152601b60248201527a14995d9a595dc8191958591b1a5b99481b9bdd081c995858da1959602a1b6044820152606490fd5b3461051c57604036600319011261051c5760043561513761629e565b5f828152600e6020908152604080832033845290915290205460ff168015615272575b801561525e575b61516a906168f4565b815f52600e60205260405f2060018060a01b0382165f5260205260ff60405f20541615615225576001600160a01b03163381146151e757815f52600e60205260405f20815f5260205260405f2060ff19815416905533917f144c5690334ec35e854db87a3317e58a31515fc9b9e2156377ae6ecae77498665f80a4005b60405162461bcd60e51b815260206004820152601660248201527521b0b73737ba103932b6b7bb32903cb7bab939b2b63360511b6044820152606490fd5b60405162461bcd60e51b81526020600482015260116024820152702737ba10309033b930b73a1030b236b4b760791b6044820152606490fd5b5061516a61526b83616f64565b9050615161565b50600254604051635692e5a160e11b815233600482015290602090829060249082906001600160a01b03165afa908115610511575f916152b3575b5061515a565b90506020813d6020116152e5575b816152ce60209383616044565b8101031261051c576152df9061654a565b836152ad565b3d91506152c1565b3461051c576152fb3661626c565b91805f52600960205261531e60018060a01b03600160405f2001541633146166ed565b61532b6005548210616745565b805f52600960205261534a60ff600b60405f20015416611ce1816161d2565b61535760065483106167ca565b61536383511515616811565b805f52600c60205260405f20825f5260205261538560ff60405f205416616856565b815f52600a60205260405f20926007840160ff81541660068110156109d057600303615625576153ba836001870154146168a0565b805460ff19166001179055805160048501906001600160401b038111611417576153e8816112d784546160fa565b806020601f82116001146155c4575f916155b9575b508160011b915f199060031b1c19161790555b426008850155815f52600960205261542f600960405f200154426168e7565b6009850155600e840180546001600160a01b03191690555f600f8501819055600d8501805461545d906160fa565b601f811161559a575b505582827fdfa84fba05557969af9b781a12f0008d0f55d08ba3ff197019c4a5803f9b6ea160405160208152806154a060208201876161e9565b0390a3815f52600960205260018060a01b03600160405f20015416936005600282019101549060405192606084525f918054906154dc826160fa565b918260608801526001811690815f14615566575060011461551d575b5050916125af828594855f5160206179e35f395f51905f5297950360208601526161e9565b5f90815260208120929350915b81831061554f5750508301608001906125af5f5160206179e35f395f51905f526154f8565b80546080848801015260209092019160010161552a565b60ff191660808089019190915292151560051b870190920193506125af91505f5160206179e35f395f51905f5290506154f8565b818352602083206155b391601f0160051c810190616643565b86615466565b9050830151876153fd565b5f8481528181209250601f198416905b81811061560d575090836001949392106155f5575b5050811b019055615410565b8501515f1960f88460031b161c1916905587806155e9565b9192602060018192868a0151815501940192016155d4565b60405162461bcd60e51b8152602060048201526016602482015275135a5b195cdd1bdb99481b9bdd081c995a9958dd195960521b6044820152606490fd5b3461051c57602036600319011261051c576004355f52600f60205260405f20805460018201546102005260028201546102405260018060a01b0360038301541690600e8301549260ff600f8201541660108201546011830154906012840154926157e86013860154956157d36014820154986157be60158401549b6157aa6156ed60048701616132565b6156f960058801616132565b9261570660068901616132565b9561571f600861571860078c01616132565b9a0161669c565b6101e05260405161022052610220515261020051602061022051015261574a60ff61024051166161d2565b60ff610240511660406102205101526157726060610220510160ff6102405160081c166161dc565b60018060a01b036102405160101c16608061022051015260a061022051015261026060c06102205101526102606102205101906161e9565b9061022051820360e06102205101526161e9565b906102205182036101006102205101526161e9565b906102205182036101206102205101526161e9565b9761014061022051015215156101606102205101526101806102205101526101a06102205101526101c06102205101526101e06102205101526102006102205101526102208051015261022051810361024061022051015261585161022051916101e051616230565b0361022051f35b3461051c57602036600319011261051c576004355f52600960205261014060405f2080549060018060a01b0360018201541690600281015460ff60038301541660088301546009840154906158da600a8601549360ff600b8801541695600d600c890154980154986040519a8b5260208b015260408a01526060890190616223565b608087015260a086015260c08501526158f2816161d2565b60e0840152610100830152610120820152f35b3461051c576159133661620d565b905f52600c60205260405f20905f52602052602060ff60405f2054166040519015158152f35b3461051c57602036600319011261051c57600480355f908152600f60205260409020610380819052805460018201546103205260028201546103405260038201546001600160a01b031661036052615bb392615b9b926159999101616132565b906159a960056103805101616132565b916159b960066103805101616132565b926159c960076103805101616132565b93600e6103805101549460ff600f61038051015416601061038051015490615b38601161038051015493615b23601261038051015496615b0e601361038051015499615afa60146103805101549c60156103805101549e615a2f60166103805101616132565b61026052615a4260176103805101616132565b610280526103805160188101546001600160a01b03908116610300526019820154166102c052601a01546102e0526040516102a08181529190526103205190516020015261034051615a969060ff166161d2565b60ff610340511660406102a0510152615abe60606102a0510160ff6103405160081c166161dc565b60018060a01b036103405160101c1660806102a05101526103605160a06102a05101526102e060c06102a05101526102e06102a05101906161e9565b906102a051820360e06102a05101526161e9565b906102a05182036101006102a05101526161e9565b906102a05182036101206102a05101526161e9565b976101406102a051015215156101606102a05101526101806102a05101526101a06102a05101526101c06102a05101526101e06102a05101526102006102a05101526102206102a05101526102a05181036102406102a0510152610260516161e9565b6102a05181036102606102a0510152610280516161e9565b610300516102806102a05101526102c0516102a0805101526102e0516102c06102a05101526102a05190036102a051f35b3461051c57615bf2366160c8565b5f828152600f60209081526040808320338452600c81019092529091205460ff168015615dd3575b615c249150616557565b615c3160075483106164a4565b615c3d815115156165b4565b815f52600f60205260405f20916002830160ff815460081c1660088110156109d0576003615c6b91146165fd565b805461ff0019166105001790556019830180546001600160a01b0319163317905542601a840155815160178401906001600160401b03811161141757615cb5816112d784546160fa565b806020601f8211600114615d71575f91615d66575b508160011b915f199060031b1c1916179055905b600b830192600d01905f5b8454811015615d2c5780615cff600192876162e0565b838060a01b0391549060031b1c16828060a01b03165f528360205260405f2060ff19815416905501615ce9565b50827ff0a4615bdfcf85972f24a6ef0759ff0946f3d4352076b64d2348a3689120cfb460405160208152806113a3339560208301906161e9565b905084015186615cca565b5f8481528181209250601f198416905b818110615dbb57509083600194939210615da3575b5050811b01905590615cde565b8601515f1960f88460031b161c191690558680615d96565b9192602060018192868b015181550194019201615d81565b50600f015460ff1680615dea575b615c2490615c1a565b50600254604051635692e5a160e11b815233600482015290602090829060249082906001600160a01b03165afa8015610511575f90615e2b575b9050615de1565b506020813d602011615e5e575b81615e4560209383616044565b8101031261051c57615e59615c249161654a565b615e24565b3d9150615e38565b3461051c57602036600319011261051c57600435615e8760075482106164a4565b805f52600f60205260405f20600281018054600260ff8216615ea8816161d2565b036160075760ff9060081c1660088110156109d057600103615fcb576003820180546001600160a01b0316615f8a5780546001600160a01b03191633908117909155615ef490826164ef565b61020061ff0019825416179055601242910155335f52601560205260405f20815f5260205260ff60405f20541615615f4f575b33907f4c9d690f170b053f812c3f0f4ab21f283b73b85d19708317259a2b22ef92305e5f80a3005b335f526014602052615f648160405f20616516565b335f52601560205260405f20815f5260205260405f20600160ff19825416179055615f27565b60405162461bcd60e51b8152602060048201526019602482015278135a5b195cdd1bdb9948185b1c9958591e4818db185a5b5959603a1b6044820152606490fd5b60405162461bcd60e51b81526020600482015260146024820152734d696c6573746f6e65206e6f742061637469766560601b6044820152606490fd5b60405162461bcd60e51b81526020600482015260156024820152744e6f7420616e206f70656e206d696c6573746f6e6560581b6044820152606490fd5b601f909101601f19168101906001600160401b0382119082101761141757604052565b6001600160401b03811161141757601f01601f191660200190565b81601f8201121561051c5780359061609982616067565b926160a76040519485616044565b8284526020838301011161051c57815f926020809301838601378301015290565b90604060031983011261051c5760043591602435906001600160401b03821161051c576160f791600401616082565b90565b90600182811c92168015616128575b602083101461611457565b634e487b7160e01b5f52602260045260245ffd5b91607f1691616109565b9060405191825f825492616145846160fa565b80845293600181169081156161b0575060011461616c575b5061616a92500383616044565b565b90505f9291925260205f20905f915b81831061619457505090602061616a928201015f61615d565b602091935080600191548385890101520191019091849261617b565b90506020925061616a94915060ff191682840152151560051b8201015f61615d565b600311156109d057565b9060088210156109d05752565b805180835260209291819084018484015e5f828201840152601f01601f1916010190565b604090600319011261051c576004359060243590565b9060028210156109d05752565b90602080835192838152019201905f5b81811061624d5750505090565b82516001600160a01b0316845260209384019390920191600101616240565b606060031982011261051c576004359160243591604435906001600160401b03821161051c576160f791600401616082565b602435906001600160a01b038216820361051c57565b600435906001600160a01b038216820361051c57565b604435906001600160a01b038216820361051c57565b80548210156162f5575f5260205f2001905f90565b634e487b7160e01b5f52603260045260245ffd5b90602080835192838152019201905f5b8181106163265750505090565b8251845260209384019390920191600101616319565b9060068210156109d05752565b616361604092959493956060835260608301906161e9565b6001600160a01b0390951660208201520152565b6001600160401b0381116114175760051b60200190565b9080601f8301121561051c578135906163a482616375565b926163b26040519485616044565b82845260208085019360051b82010191821161051c57602001915b8183106163da5750505090565b82356001600160a01b038116810361051c578152602092830192016163cd565b9080601f8301121561051c57813561641181616375565b9261641f6040519485616044565b81845260208085019260051b82010192831161051c57602001905b8282106164475750505090565b813581526020918201910161643a565b606060031982011261051c57600435916024356001600160401b03811161051c57826164859160040161638c565b91604435906001600160401b03821161051c576160f7916004016163fa565b156164ab57565b606460405162461bcd60e51b815260206004820152602060248201527f50726f6a656374206d696c6573746f6e6520646f6573206e6f742065786973746044820152fd5b805462010000600160b01b03191660109290921b62010000600160b01b0316919091179055565b8054600160401b81101561141757616533916001820181556162e0565b819291549060031b91821b915f19901b1916179055565b5190811515820361051c57565b1561655e57565b60405162461bcd60e51b815260206004820152602860248201527f4e6f7420617574686f72697a656420746f20617070726f76652074686973206d604482015267696c6573746f6e6560c01b6064820152608490fd5b156165bb57565b60405162461bcd60e51b815260206004820152601a60248201527914995a9958dd1a5bdb881b595cdcd859d9481c995c5d5a5c995960321b6044820152606490fd5b1561660457565b60405162461bcd60e51b8152602060048201526017602482015276135a5b195cdd1bdb99481b9bdd081cdd589b5a5d1d1959604a1b6044820152606490fd5b81811061664e575050565b5f8155600101616643565b9190601f811161666857505050565b61616a925f5260205f20906020601f840160051c83019310616692575b601f0160051c0190616643565b9091508190616685565b90604051918281549182825260208201905f5260205f20925f5b8181106166cb57505061616a92500383616044565b84546001600160a01b03168352600194850194879450602090930192016166b6565b156166f457565b60405162461bcd60e51b815260206004820152602360248201527f4f6e6c79206772616e7465652063616e2063616c6c20746869732066756e637460448201526234b7b760e91b6064820152608490fd5b1561674c57565b60405162461bcd60e51b815260206004820152601460248201527311dc985b9d08191bd95cc81b9bdd08195e1a5cdd60621b6044820152606490fd5b1561678f57565b60405162461bcd60e51b81526020600482015260136024820152724772616e74206973206e6f742061637469766560681b6044820152606490fd5b156167d157565b60405162461bcd60e51b8152602060048201526018602482015277135a5b195cdd1bdb9948191bd95cc81b9bdd08195e1a5cdd60421b6044820152606490fd5b1561681857565b60405162461bcd60e51b8152602060048201526016602482015275115d9a59195b98d9481a185cda081c995c5d5a5c995960521b6044820152606490fd5b1561685d57565b60405162461bcd60e51b815260206004820152601b60248201527a135a5b195cdd1bdb99481b9bdd081c185c9d081bd98819dc985b9d602a1b6044820152606490fd5b156168a757565b60405162461bcd60e51b815260206004820152601860248201527709ad2d8cae6e8dedcca40cee4c2dce840dad2e6dac2e8c6d60431b6044820152606490fd5b9190820180921161251557565b156168fb57565b60405162461bcd60e51b815260206004820152602760248201527f4f6e6c79206772616e742061646d696e2063616e2063616c6c207468697320666044820152663ab731ba34b7b760c91b6064820152608490fd5b5f1981146125155760010190565b51906001600160a01b038216820361051c57565b81601f8201121561051c5780519061698982616067565b926169976040519485616044565b8284526020838301011161051c57815f9260208093018386015e8301015290565b91906101008382031261051c578251926169d46020820161695e565b60408201519093906001600160401b03811161051c57836169f6918401616972565b60608301519093906001600160401b03811161051c5781616a18918501616972565b92616a256080820161654a565b92616a3260a0830161654a565b9260c08301519260e08101519060018060401b03821161051c57019080601f8301121561051c578151616a6481616375565b92616a726040519485616044565b81845260208085019260051b82010192831161051c57602001905b828210616a9a5750505090565b8151815260209182019101616a8d565b15616ab157565b60405162461bcd60e51b8152602060048201526016602482015275141c9bda9958dd08191bd95cc81b9bdd08195e1a5cdd60521b6044820152606490fd5b15616af657565b60405162461bcd60e51b815260206004820152601560248201527450726f6a656374206973206e6f742061637469766560581b6044820152606490fd5b15616b3a57565b60405162461bcd60e51b815260206004820152600e60248201526d151a5d1b19481c995c5d5a5c995960921b6044820152606490fd5b8054600160401b81101561141757616b8d916001820181556162e0565b81546001600160a01b0393841660039290921b91821b9390911b1916919091179055565b80518210156162f55760209160051b010190565b15616bcc57565b60405162461bcd60e51b815260206004820152600f60248201526e496e76616c6964206164647265737360881b6044820152606490fd5b15616c0a57565b60405162461bcd60e51b8152602060048201526016602482015275496e76616c696420746f6b656e732f616d6f756e747360501b6044820152606490fd5b91906101a08382031261051c57825192616c646020820161695e565b60408201519093906001600160401b03811161051c5783616c86918401616972565b606083015190936001600160401b03821161051c57616ca6918401616972565b9160808101519160a08201519160c08101519160e082015191616ccc610100820161654a565b91616cda610120830161654a565b91616ce8610140820161695e565b91610180616cf9610160840161654a565b92015190565b9081526001600160a01b03909116602082015260400190565b15616d1f57565b60405162461bcd60e51b8152602060048201526016602482015275125b9cdd59999a58da595b9d0810d15313c81cd95b9d60521b6044820152606490fd5b15616d6457565b60405162461bcd60e51b8152602060048201526013602482015272151bdad95b881b9bdd081cdd5c1c1bdc9d1959606a1b6044820152606490fd5b15616da657565b60405162461bcd60e51b815260206004820152601d60248201527f416d6f756e74206d7573742062652067726561746572207468616e20300000006044820152606490fd5b9190820391821161251557565b15616dff57565b60405162461bcd60e51b81526020600482015260146024820152734772616e74206d7573742062652061637469766560601b6044820152606490fd5b8181029291811591840414171561251557565b90616e5882616375565b616e656040519182616044565b8281528092616e76601f1991616375565b0190602036910137565b5f52600f60205260405f2090600282015491600260ff8416616ea1816161d2565b03616ed957600301546001600160a01b039182169116149081616ec2575090565b60ff915060081c1660088110156109d05760021490565b50601082901c6001600160a01b039081169116149081616ef7575090565b60ff915060081c1660088110156109d05760018114908115616f17575090565b600591501490565b15616f2657565b60405162461bcd60e51b8152602060048201526016602482015275135a5b195cdd1bdb99481b9bdd08185c1c1c9bdd995960521b6044820152606490fd5b5f52600960205260405f2060ff60038201541660028110156109d057600114616f8c57505f90565b6002805491015460405163a08ff7d360e01b81529160209183916001600160a01b03169082908190616fc390339060048401616cff565b03915afa908115610511575f91616fd8575090565b90506020813d602011617004575b81616ff360209383616044565b8101031261051c576160f79061654a565b3d9150616fe6565b60026001541461701d576002600155565b633ee5aeb560e01b5f5260045ffd5b91815f52600a60205260405f2091835f52600960205260405f20936007840160ff81541660068110156109d05760026170689196959614616f1f565b5f9460068501946004880192875b845481101561736c5761708981866162e0565b905460039190911b1c6001600160a01b03165f81815260208a9052604090205480151580617349575b6170c1575b5050600101617076565b919099508a60019a60646170d9600884015486616e3b565b049360066170e78683616deb565b9360018060a01b0384165f526007810160205260405f20617109848254616deb565b905560018060a01b0384165f520160205261712960405f209182546168e7565b9055818d8d8c8c60018060a01b036003541686145f1461732457505001545f918291829182916001600160a01b031682821561731b575bf11561051157888a918e8e5b871580156171af575b50916001976060925f516020617a235f395f51905f52948a8060a01b03910154169660405192835260208301526040820152a4905f6170b7565b600254604051638da5cb5b60e01b81529496509094506020925083915060049082906001600160a01b03165afa908115610511578f8f908d918f935f956172d7575b506003546001600160a01b031687036172ad57505050505f80878194829483916172a3575b6001600160a01b031690f11561051157885f516020617a235f395f51905f5260608f938f978e956001995b835f52600460205260405f206172588482546168e7565b9055835f516020617ac35f395f51905f52608060405186815260406020820152601060408201526f6d696c6573746f6e655369746546656560801b89820152a2929450925097617175565b6108fc9150617216565b869295509089916172d260019b5f516020617a235f395f51905f52976060979a61776d565b617241565b9450505050506020813d8211617313575b816172f560209383616044565b8101031261051c578b8f8f929061730c8e9261695e565b935f6171f1565b3d91506172e8565b506108fc617160565b82840154919590949093929161734491906001600160a01b03168561776d565b61716c565b506001600160a01b0382165f90815260078d0160205260409020548111156170b2565b50939550935095505061616a93617385575b50506177ce565b600460ff198254161790556011429101555f8061737e565b90815f52600f60205260405f206002810190815460ff8160081c1660088110156109d05760040361771d57600260ff82166173d7816161d2565b0361770b575060038101546001600160a01b0316935b6001600160a01b0385169182156176c9575f946009820194600883019190875b83548110156176a25761742081856162e0565b905460039190911b1c6001600160a01b03165f81815260208a90526040902054908b908215158061767f575b61745c575b50505060010161740d565b9092919a5060019a606461747260085483616e3b565b04908a8a6174808484616deb565b96879360018060a01b0387165f52600a8d016020526174a460405f20918254616deb565b90556003546001600160a01b0316860361766b5750505f8080938193828215617662575bf11561051157888a915b801580156174ff575b50505f516020617ae35f395f51905f526020600196604051908152a4908a5f617451565b600254604051638da5cb5b60e01b815292979450909250602090829060049082906001600160a01b03165afa908115610511575f91617629575b506003548c908c906001600160a01b031686036175f15750505f80878194829483916175e7575b6001600160a01b031690f11561051157885f516020617ae35f395f51905f5260208c93855f516020617ac35f395f51905f52608060019a5b835f526004865260405f206175ae8282546168e7565b9055604051908152604086820152601360408201527270726f6a6563744d696c6573746f6e6546656560681b6060820152a296506174db565b6108fc9150617560565b925092602090855f516020617ac35f395f51905f5260808a61762460019c5f516020617ae35f395f51905f52988661776d565b617598565b90506020813d821161765a575b8161764360209383616044565b8101031261051c576176549061695e565b5f617539565b3d9150617636565b506108fc6174c8565b9261767a91938695939561776d565b6174d2565b506001600160a01b0381165f908152600a8901602052604090205483111561744c565b509550965050939150506176b4575050565b61060061ff0019825416179055601542910155565b60405162461bcd60e51b815260206004820152601a6024820152794e6f20726563697069656e7420666f72206d696c6573746f6e6560301b6044820152606490fd5b60101c6001600160a01b0316936173ed565b5050509050565b6040516323b872dd60e01b60208201526001600160a01b03928316602482015292909116604483015260648083019390935291815261616a91617768608483616044565b61796a565b60405163a9059cbb60e01b60208201526001600160a01b03909216602483015260448083019390935291815261616a91617768606483616044565b5f546001600160a01b031633036177bb57565b63118cdaa760e01b5f523360045260245ffd5b90815f52600960205260405f2091600b83019182549160ff83166177f1816161d2565b61796357805f52600b60205260405f2094604051808760208299549384815201905f5260205f20925f5b81811061794a57505061783092500387616044565b6001945f94855b885187101561793c5761784a878a616bb1565b515f52600a60205260405f2060ff60078201541660068110156109d0576004810361788a57506001916005617881920154906168e7565b965b0195617837565b9197916001811491508115617931575b506178a757600190617883565b50929550929590935f915b82617926575b508161791b575b506178cb575b50505050565b60019060ff191617905542600d8201556001808060a01b0391015416907fe48d32db0b1f57b66acc23d99ebd241eb6794811be6ad9cbcb25b224a1c766806020604051428152a35f8080806178c5565b60649150145f6178bf565b51151591505f6178b8565b60029150145f61789a565b9194979093969295506178b2565b845483526001948501948b94506020909301920161781b565b5092505050565b905f602091828151910182855af115610511575f513d6179b957506001600160a01b0381163b155b6179995750565b635274afe760e01b5f9081526001600160a01b0391909116600452602490fd5b6001141561799256fe479fd5ce73043ce91ff5290b37661b62de7d0863fb7913cd1096d07d4c057e4349e3d2eb59c8351566877bececa657036bf10e11dc662368a08cc96bccaab44cf73bda6817ba0a83b59cb9db3d1a862d5ec2a0277e30ae1fef6bfc9c54ceb66f6c012beb8d2411fc12d0fce982b556fbdf3db36969fcf628edd0721ba2cb05f94175746f2d617070726f7665642061667465722072657669657720646561646c2ca026986ebdd2450f9466062b236a27d6985ac536cb3fff5ede696e05b7e3158be0079c531659141344cd1fd0a4f28419497f9722a3daafe3b4186f6b6457e005aaf606b382101cb1a68aee673e83f7775ab4a261f6e325a4e83d0fa3759c71bde344b6f67c3bf7e0ecbbf22b04267d5d3ae0aa1909c0000b812f6b14ce45b95f238831b6e26e1f0fb69a8213156b9dfd15ddea5216af01e49c854ca7ffe7e2a264697066735822122087667530876bb0e317c9ab4adcc7185ec50d5e8a20e8273f8731a2cab9cddb4464736f6c634300081c0033",
  "linkReferences": {},
  "deployedLinkReferences": {},
  "immutableReferences": {},
  "inputSourceName": "project/contracts/milestone.sol",
  "buildInfoId": "solc-0_8_28-66ad3b74c19317c117cf45eef93741835e7e0352"
}